:10000000007E0020C5A00100EFA20100F331000036
:1000100000000000000000000000000000000000E0
:10002000000000000000000000000000F1A201003C
:100030000000000000000000F3A2010009320000EF
:10004000733200006B330000BB330000BD3300008F
:10005000E7330000F93300000B34000029340000BE
:100060003534000075340000773400007F34000020
:10007000873400008F340000973400009F34000064
:10008000A7340000AF340000D1340000D9340000A0
:10009000E1340000E9340000F1340000F9340000DC
:1000A000013500000D350000153500001D3500003C
:1000B0002935000031350000393500004535000094
:1004100038B501F08FFA002001F0AAFCFA24A400FC
:100420004F4D04E001F015FD200001F033FD287868
:1004300069780906090C0843400A4007F2D10020F8
:1004400001F01DFE9622D2004648C079811E49B2B5
:1004500045480068454B5B6B984701F0B5FC0120AF
:1004600001F00DFE012001F083FC01F069FA31BDBD
:1004700080B53F4A01F03CFF02BD38B504000D00D5
:10048000FF2028702070AA2068706070A878A07083
:10049000E878E070E978091D2000FFF7E9FFEA78C5
:1004A000A2181071000AE978611848714020E978B3
:1004B0006118887131BD10B52E4801682E4C002995
:1004C00001D0200088472000083001F051FF41058D
:1004D000C90F0DD02248017842781206120C114340
:1004E00008220A430270120A4270012010F044F9F7
:1004F0002000083001F03CFF0200210008311F48B5
:10050000104001F041FF2000083001F031FF0200EF
:10051000210008311A48104001F036FF2000083051
:1005200001F026FF0200210008311648104001F0BA
:100530002BFF2000083001F01BFF020021000831D2
:100540001148104001F020FF2000083001F010FF9A
:10055000210008310D4A0240100001F015FF10BDC6
:10056000B400002010020020A0060020C0280020B7
:1005700001A0000030000020F0020020FFFDFFFF7E
:10058000FFF7FFFFFFFEFFFFFFFBFFFFFF0FFFFF78
:10059000F5B58BB00D0000206A46107000260021D2
:1005A000C9430A916946C8700B988078C206D20E7A
:1005B0001C2A09D0062D00DC33E1FF2D0EDC0B9A3E
:1005C000D278D21DAA4211D10B9A1278FF2A05D1F6
:1005D0000B9A5278AA2A01D1C00902D1012000F059
:1005E000F3FD0B984019401E0078402800D0DFE250
:1005F0000224691E0B98FFF73BFF002801D000F092
:10060000ECFE0B98007902900B98407901900298CB
:1006100001994018401EC049872292008A1807920B
:10062000D03104910B998978C906C90E491E012958
:100630001DD9891E00D18BE0491E73D0491E0329A4
:1006400018D9091F6CD0491E012913D9C91E11D010
:10065000891E00D186E00C390CD0491E00D184E0FF
:10066000491E012906D9891E00D188E097E05B2840
:1006700000D3E8E00B988078C106C90EC64A039201
:100680008009C00700D58CE0032909D002980C9995
:10069000087101980C9948710198801C0B99C870D9
:1006A000BE480B998978C906C90E012901D100F00D
:1006B000DBFD022901D100F0E4FD032901D100F0A6
:1006C0002DFE042901D100F011FE092901D100F00D
:1006D000E5FD0B2901D100F031FE0F2901D100F019
:1006E000EAFD1B2901D100F036FE1D2901D100F0E1
:1006F0003EFE1E2900D094E00C200B99C870C64C19
:10070000A1680C98001D01F0B1FD61680C980830DB
:1007100001F0ACFD21680C980C3001F0A7FDC0E0A1
:10072000742820E010281FD29C4DBC480078287106
:100730000498007DE87102F09BF829000C3101F06B
:1007400023FE0798C07D28740798007E687491E79F
:10075000924908784A781206120C10438007800FDD
:10076000099087E7FF2885D36DE0AD480368002B2B
:1007700057D00C9A29000B98984700F074FEA94DA9
:100780000B98C078042805D10B98001D01F035FDA9
:1007900028606FE76048006F03218843F8E7032073
:1007A00007E25D4A10788F239B00D3180693019BC4
:1007B0009B1C0593FF239B1DD2180892CD4DCE4F55
:1007C000491E59D0491E00D1D9E0491E00D171E21D
:1007D000491E00D1E7E1491E01D100F0EDFB491EA1
:1007E00001D100F015FC491E012901D800F043FC9D
:1007F000891E00D118E1491E03D0491E00D107E22D
:10080000891E01D100F0CCFC891E00D176E10E39A1
:1008100001D100F003FD491E05D0491E01D100F0B1
:10082000EAFC00F01FFE0B98C07814280BD101F0F1
:1008300096F9002800D0D5E301210B98001D01F0A6
:100840002EF9002801D10420B3E114210B98001DDA
:1008500002F0B0FA01F083F9002801D100F079FC30
:100860004E4908784A781206120C1043802202433F
:100870000A70120A4A703BE10B98C07805998842C9
:1008800000D095E1380001F073FD062101252840D4
:10089000029802D00B281FD201E0032803D2684639
:1008A000017000F0A9FD0B2816D2380001F060FDA0
:1008B0003900284301F068FD380001F059FD0200BD
:1008C00039000C2082430420104301F05DFD042216
:1008D00039000B2002F0F4F90022BA490B98029C6F
:1008E000019F04E0831D9B5CA6188B55521CBA42E5
:1008F000F8D30B902948017842781206120C114364
:10090000B04B1A004B32B048090A294206D04B219D
:10091000595C4143527804E000170020917841432C
:10092000D2784243A948826641660025A84EA54870
:1009300069004018513001F05BFC290171180886EC
:100940006D1C032DF3DD9F4D2800133001F055FC85
:1009500007990860102229001B31FD204000301843
:1009600001F031FC102229002B319A48301801F097
:100970002AFCBAB229191034200000F06EFC0B9842
:10098000C0780599884200D012E1002700229249E0
:100990000B98029C019E08E0F6170020B40000208E
:1009A000831D9B5CA5184B55521CB242F8D30B908B
:1009B0000D4628790007000F06994872280001F0BB
:1009C0001CFC0699C860681D01F012FC049908809F
:1009D000E879811E7E4832233A018218D154020000
:1009E000F6325170282281547F1C032FF4DDB2B2FD
:1009F00029198034200002F063F90020CD490968EC
:100A00008847CD4908784A781206120C10438007AF
:100A10006ED10FF031F86BE0740E10009B190020BE
:100A200014000020A0060020C4480278417809067E
:100A3000090C0A4301216B46120A012414409C70E0
:100A4000027843781B061B0C1A4368461206D20E26
:100A5000114041700B98C0780599884252D1002509
:100A60000B996846C4780298019A0AE08B1D5B5D79
:100A7000B24E4719F61937789F4200D001243370DF
:100A80006D1C9542F2D30B91AC4D92B22918802384
:100A90005B00C01802F014F94320295C002901D042
:100AA000481E00E0002003990870002C04D068461E
:100AB000417880780FF066FD9F4908784A781206E1
:100AC000120C1043400A400710D14220285C002835
:100AD0000CD0287869780906090C0843800BC007F8
:100AE00004D4BE48806B80470BF0AAFC11F0A6F935
:100AF000B5E300BFC0110020600000200B98C07853
:100B00000599884254D10298082851D300230B99A3
:100B10000A98029E019F0AE08A1DD25CB04CF5182B
:100B200064192578954201D0227018005B1CBB42E5
:100B3000F2D30B910028DBD4A94C2000083001F03F
:100B400017FCC105C90F0AD07B4908784A781206FC
:100B5000120C1043802202430A70120A4A70A14804
:100B6000A1490860A14D280001F002FC0200290003
:100B70000120104301F008FCBAB2A119A0208000A6
:100B8000301802F09DF82000083001F0F1FB04005D
:100B9000280001F0EDFB2900954A0240A0048023C3
:100BA0001B03184031E30B98C0780599884201D0A7
:100BB000052008E300240648F63003900B980299BC
:100BC00017E000BF4001002040420F00001B002042
:100BD000001700200A02000010020020564A851D5E
:100BE0002D5D961C0F19F55502D19278039B9A70D2
:100BF000641C019A944201D300F037FC0B19EDD02C
:100C0000012BEBD0082BE9D0092BE7D00B90CFE2DA
:100C100003250B98017903200840474E31787278FC
:100C20001206120C1143CF4A0A4010433070000ADA
:100C300070700B98C470307871780906090C0843FD
:100C40000127000A38421FD0684C200001F090FBB9
:100C500021000743380001F097FB317870780006D7
:100C6000000C0143604803220A40012A01D1BE4919
:100C700009E0317872781206120C114303220A40FF
:100C8000022A02D1B9490160E9E23178727812068C
:100C9000120C1143294206D1B5490160B54803C879
:100CA000B5490860DBE2200001F062FB210001226F
:100CB0009043ABE280200B99097901420AD01E4A89
:100CC000117853781B061B0C194308431070000A57
:100CD0005070C4E2184D287869780906090C084359
:100CE0000124000A204242D0287869780906090CBC
:100CF00008430B9909790323032707400B409F42C0
:100D00001ED1287869780906090C08438007800FEE
:100D1000022876D10498808C800572D4334F380035
:100D200001F026FB3900204301F02EFB8F482E49AD
:100D300051E000BFC01C0020B40000207002002061
:100D40008807800F032800D132E229786A781206DA
:100D5000120C1143834A0A4010432870000A68703D
:100D6000287869780906090C0843000A204248D00F
:100D70000498808CB9490140049881841B4F380045
:100D800001F0F6FA3900204301F0FEFA2A7868787B
:100D90000006000C02431448032103231340012BD7
:100DA00001D1714909E02A786B781B061B0C1A43A4
:100DB00003231340022B02D16C49016021E02A7801
:100DC0006B781B061B0C1A430A4213D16849016059
:100DD000684803C86849086013E000BFC0280020C5
:100DE000F0020020B70400001800002000000020DE
:100DF000FFFFF7FF380001F0BBFA3900A04301F014
:100E0000C3FA297868780006000C01430B98007932
:100E1000890801220A40810821408A420FD08108B6
:100E20000120084029786A781206120C1143AA4A58
:100E30000A40800010432870000A68700126297853
:100E400068780006000C01430B980079C90801225C
:100E50000A40C10821408A420FD0C1080120084041
:100E600029786A781206120C11439C4A0A40C00085
:100E700010432870000A68700126297868780006F7
:100E8000000C01430B980079090901220A4001096D
:100E900021408A421AD001090120084029786A7845
:100EA0001206120C11438E4A0A40000110432870AA
:100EB000000A6870287869780906090C0843010659
:100EC000090F012008400EF0ABFD01262978687853
:100ED0000006000C01430B980079490901220A40E1
:100EE000410921408A420FD0410901200840297858
:100EF0006A781206120C11437A4A0A4040011043E4
:100F00002870000A687001262A7868780006000CAC
:100F10000243754801785209224202D040220A4316
:100F200001E0BF220A400270297868780006000CB0
:100F300001430B980079890901220A408109214067
:100F40008A421BD081090120084029786A7812065C
:100F5000120C1143AF4A0A40800110432870000A66
:100F600068700DE0FCFF0000EDFB000039FB0000A5
:100F700079FA00001012002020000020002E05D079
:100F800002222900E320800001F09AFE2878697887
:100F90000906090C08438008204209D0287869789E
:100FA0000906090C08438009204201D0012000E015
:100FB00000200EF03DFC52E10B99C97800292AD19E
:100FC00095490A784B781B061B0C1A43520A5207A4
:100FD00068D10A784B781B061B0C1A430124110AAE
:100FE000214201D00A20EEE0012805D0412803D09B
:100FF000022801D0422809D106F062FB2A001032F3
:101000000CCA99421BDB01DC904218D3B04828E09F
:101010000B99C978002900D0CAE0012805D04128E1
:1010200003D0022801D042280BD106F049FB2A0048
:1010300010320CCA994204DC01DB904201D211202B
:10104000C1E0754908784A781206120C1043012451
:10105000C008204204D19E4803E000BFFCF9000014
:101060009C489D4908609D4D280001F081F92900A8
:1010700004432000CAE00B98C0780624F32858DA0D
:101080000B990979DF2954DCF12852DA934E3000AC
:1010900001F06EF90125800C284003D19048C0680A
:1010A0008047002800D08DE0039880780E490978A9
:1010B0008C4A127812092A4233D0012905D04129DD
:1010C00003D0022901D0422910D10B99C9780328F5
:1010D0002DDB30D0DF292BE0FBFF0000F7FF000005
:1010E000EFFF0000DFFF000000170020832927D159
:1010F00001281EDD022803D10B98C0780C2817E0C8
:10110000032803D10B98C078372815E0042803D1B1
:101110000B98C0787F280FE012DD0B98C078F32879
:1011200006E083290CD10B99C978032802DA342907
:1011300006DD52E102D1752902DB4EE1DF29FCDC3C
:10114000354908784A781206120C1043000A2842E2
:1011500001D10B2037E00B98C078421E03988273B0
:10116000D2B20B98411D089801F02DF80B98007928
:10117000039908730B988078C106C90E072902D11C
:1011800003994D7304E0082902D1002003994873A4
:10119000554851490860300001F0EAF8310027E075
:1011A0000B98C078F12803DA0B980079DF2801D07A
:1011B000062008E0494C200001F0DAF80125800CF7
:1011C000284003D007206946087015E10B98C078C5
:1011D000421E03988273D2B20B98411D089800F00A
:1011E000F2FFC3483C490860200001F0C1F821002B
:1011F000054328000AE0BF4837490860374C200003
:1012000001F0B6F8020021000120104301F0BCF803
:1012100025E000BFBFFF0000B40000200B9800795C
:1012200002280ED1380001F0A3F8020039000C208A
:1012300082430820104301F0A7F8042239000B2054
:101240000BE0032800D00DE10B98401D00F0D0FF0B
:101250000B99CA79C92A02D2091D01F031FD01207A
:101260000B99C870002073E00024A34B0C980299DE
:10127000019A861D944248D20D195D5D3555641C56
:10128000F8E700249D4B0C980299019A861D944220
:101290003BD20D195D5D3555641CF8E70024984B71
:1012A0000C980299019A861D94422ED20D195D5D0B
:1012B0003555641CF8E70024924B0C980299019A6A
:1012C000861D944221D20D195D5D3555641CF8E7E9
:1012D000BD260100D1F5000018000020000000200C
:1012E000C0280020BD020020D9F8000001F0C0FA9B
:1012F000854C21000C3101F047F803988078A070EC
:1013000000230C980299019A934200D3EEE0A51CA9
:10131000CE18AD5D861DF5545B1CF5E70B99CC70BE
:10132000017842781206120C11430C9A117101785F
:1013300042781206120C1143080A15E001210B9A9B
:10134000D170017842781206120C11438807800F81
:101350000C99087150E00B98C4700498808C0C991B
:1013600008710498808C000A0C99487144E00B982D
:101370000079012601281CD10B98401D00F03DFF8B
:1013800007000B98C5790624C92D26D22A000C998E
:101390000831380001F057FC00281ED10C98067166
:1013A0000C994D7239000C98401D00F05FFF6D1DC7
:1013B00020E0032856D10B98401D00F019FF0700CC
:1013C0000B98C5790624C92D07D22A000C9908313B
:1013D000380001F049FC002802D0684604700BE098
:1013E0000C9806710C99CD7139000C98401D00F0D5
:1013F00033FF2D1D0B98C5700B9880784006400E6A
:101400000B9988705F210140432906D169466A46DD
:101410001278099B9B0113430B7020216A461278B6
:10142000002A13D001200B9AD0700B9880786A465E
:101430001278920602D0DF21014000E001430B98B0
:101440008170684600780C99087102E001430B989E
:1014500081700B990C98FFF710F80B98C078C01D9D
:1014600080B200E000200DB0F0BD0B90264CA07AB9
:10147000E17A0906090C08430125284201D00699A2
:101480000D70A07AE17A0906090C08434008284249
:1014900001D007998D77A07AE17A0906090C0843F3
:1014A000800828420AD016483521415C069A5177B7
:1014B0003421405C069908770799CD77A07AE17AC4
:1014C0000906090C08430DD010494D731048114905
:1014D0000860114E300000F04BFF3100054328003A
:1014E00000F052FF0020A072E072B8E60C9083E793
:1014F0006DF80000110400004001002010020020DF
:1015000070020020F0020020B4000020F617002036
:10151000B1F900001800002000000020F1B588B0EB
:1015200001ACA078DF210140A1700120E070694684
:10153000A378E0251D400D702B4610251D434D73EB
:101540006B461B7811251D430D736B461B783225A6
:101550001D43CD70097813230B43A24DA7218900A9
:10156000691802916946029E7679B61C8E709E4E6D
:10157000AE5D4E70029909689C4EAE1904969C4E61
:10158000AE1905969B4EAD190695002608AD2D782F
:101590006D1E00D154E1AD1E00D144E1ED1E1FD0FF
:1015A000AD1E012D2ED9AD1E3BD0ED1F00D141E166
:1015B000AD1E00D14CE16D1E00D1C6E06D1E012DA7
:1015C00000D820E1ED1E00D128E16D1E1FD06D1E58
:1015D00024D06D1E00D111E12D1F00D12DE1A0E11D
:1015E000854B19785D782D062D0C2943C9080142D9
:1015F000F5D06846407BA0701671A0782021014389
:10160000A17081E16846407BA07011201EE1684610
:10161000007833210143A170172017E1A37018202F
:1016200014E14B0604D56846007BA07012200DE142
:101630006B466D462D7831272F431F708B060CD5D6
:10164000029B5B79002B08D1A7701671029909687B
:10165000490501D522211171A8E0624B634D5B1948
:101660000493654B8D0706D11D785F783F063F0CCC
:101670003D43AD073ED1059D029F3F79ED5DC93DDC
:10168000ADD00C3D012DAAD9ED1EA8D06D462D7808
:10169000A5706D46AD78E5701D785F783F063F0C0C
:1016A0003D436D0B054205D0490501D5212106E0DA
:1016B000142104E0490501D5202100E01321117116
:1016C000994D05992F79C95D517106E004992F79DB
:1016D000BF19C95D971DB955761C69798E42F5DB36
:1016E00092490D784E783606360C35436D0A054220
:1016F0006DD065E0C90300D413E10299497900294E
:1017000030D006990978202901D1162102E0042958
:1017100001DC41311171844D05992F79C95D5171F9
:1017200006E004992F79BF19C95D971DB955761C3C
:1017300069798E42F5DB7D490D784E783606360C98
:1017400035436D0A054242D03AE0029989790B008F
:10175000C92B03D1029DED79812D0ED0C93901D05D
:101760000C39012900D8DCE0C91E74D0DC2B72D002
:10177000D72B02D0DB2B00D0D3E069460978352384
:101780000B43A37068494B795B1CE37020231371F2
:101790008B795371012306E0049D0E79F618AD5D37
:1017A000561DF5545B1C4D79AB42F5DB5F490B7858
:1017B0004D782D062D0C2B435B0A034207D00E4BB0
:1017C0005B79151DE678AB55E3785B1CE3700B780D
:1017D0004D782D062D0C2B43990A014200D08BE049
:1017E00092E000BF00170020E2030000A202000008
:1017F000A102000099020000B40000206846007BAE
:10180000A0700C2022E06846C078A07008A800787C
:10181000162801D1312019E0322017E06846C0783F
:10182000A070332012E068464078000679D5A37096
:1018300019200BE0A3701B2008E0A3701C2005E01A
:101840006846407800066CD5A3701A2010715BE0E2
:10185000029B5B79002B64D0059B029D2D795B5D1B
:10186000C93B5ED00C3B012B5BD9DB1E59D06B46CC
:101870001B7834251D43A5706B469B78E3704905A2
:1018800001D5232100E01521117102990968C903CE
:1018900009D506990978202901D1162102E00429E9
:1018A00001DC413111712049059B0D795B5D53715C
:1018B00006E0049B0D79AD195B5D951DAB55761C5B
:1018C0004B799E42F5DB19490B784D782D062D0C8E
:1018D0002B435B0A034207D0154B5B79151DE67855
:1018E000AB55E3785B1CE3700B784D782D062D0C1F
:1018F0002B43990A014207D00D488079111DE378E6
:10190000C854E078401CE070A0784006400E4021AA
:101910000143A17001A91000FEF7AFFDE078C01DE2
:1019200000E0002009B0F0BD9C19002070020020EA
:10193000B400002072B6A1480168491C01607047DC
:101940009E480168002901DD491E016000680028E9
:1019500000D162B67047F8B500248F4D28786978B9
:101960000906090C08438007800F022802D10EF0F7
:1019700063FA04000EF00EFA002800D001240EF0E5
:10198000D3FA002800D00124844F0CCF083F844EA6
:101990001004400EC0070AD5B068012802DD401EC1
:1019A000B06004E07FA003C81040194003C770680E
:1019B00001280BD1287869780906090C08437B496E
:1019C00001402970090A6970002008E0002808D148
:1019D0007B4800F0CDFC4103C90F07D001200AF07D
:1019E00042F97068012801DD401E70602000F2BDE0
:1019F000F8B56F4F6F4E70484068002813D072B62C
:101A00006E480168491C01606E4A30CA083AB07AD3
:101A1000002813D03000103001F0F6F98D4219DBA8
:101A200001DC844216D33000103001F0EDF903C719
:101A30000020B072FFF784FF0020F2BD03CF083F03
:101A40008D4202DBF6DC8442F4D203CF0023801DFA
:101A5000594103C2FFF774FF0120F2BD78B50B2A8C
:101A600006D1531E02001C03641C0023564812E0DA
:101A70000C2A01D1931EF5E7012072BD280007E072
:101A8000D55C684008264508C007F7D520006840A7
:101A9000761EF8D15B1C8B42F2D380B272BDF8B5D2
:101AA00086B004000D0000F0D4F9002D04D11421FB
:101AB000200001F090F905E01422210001A800F0B7
:101AC00082FB01AC0025E07B4008404E06E0002D83
:101AD00042D10125009980200843C0B2002162183C
:101AE00013785B1A03E00F29F9D1621813781B1AD7
:101AF0001370491C1229F6DD00902078FF28E6D1EA
:101B00006078AA28E3D1A07C4028E0D1A07AE178CF
:101B10008842DCD10B2210212000FFF79FFF070035
:101B20002000103000F064FB8742D0D1B768201D40
:101B300000F063FB8742CAD177682000083000F0CC
:101B40005CFB8742C3D1376820000C3000F055FBA6
:101B50008742BCD1012000E0002007B0F0BD30B5C5
:101B600085B000216846FFF79AFF0500184C200059
:101B700000F0FEFB020021000220824368000223E5
:101B80001840104300F000FC200000F0F1FB81073A
:101B9000C80F05B030BD0000B4000020F0110020D7
:101BA000001B0020FFFDFFFFFFFFFFFFFFF1000014
:101BB00010120020C8000020281200203800002049
:101BC0000000002020120020FFFF0000740E100013
:101BD0006000002001228A40D14300E00021000281
:101BE0002D4A801841610020704700022A494018A0
:101BF000C1688022D20056E010B50002264A801843
:101C00000A78C368344C1C401203C0239B01134064
:101C10002343C3604A78C3682E4C1C405202802381
:101C20009B001A402243C2608A78C3682B4C1C4038
:101C3000120280235B001A402243C260CA78C36844
:101C40007024A343120114401C43C4600A79C36882
:101C50000824A343D20022401A43C2604A79C368D1
:101C60000424A343920022401A43C2608979C268C7
:101C700002239A4349001940114333E00EE016E075
:101C80001EE00002194A80180268120C12040A436E
:101C90000260002070470000000C00400002134961
:101CA0004018C16801220A43C26000207047000248
:101CB0000E494018C16801229143C160002070475D
:101CC00000020A4A80184268120C12040A43426059
:101CD00000207047FFFDFFFFFFCFFFFFFFFEFFFF6C
:101CE00011401943C160002010BD0000000C0040ED
:101CF0000A43C2600020704700021B494018C168B7
:101D00000122F5E718B585B01421684601F03EFAC6
:101D10000121082001F0E0F90020694608704871AF
:101D20000322CA7001228A71087188704870FFF717
:101D300063FF0E4C21000020FFF7A3FF21000020CD
:101D4000FFF79EFF00210020FFF744FF0020FFF770
:101D50004CFF012203210E2001F022FA0020FFF7A0
:101D6000CBFF06B010BD0000000C0040D4FE000008
:101D700080B5002802D1FFF782FF01BD0020FFF7E8
:101D80007DFF01BD10B53B4A13680F24A34309072B
:101D9000090F19431160116820239943400118402D
:101DA00008431060002010BD34484078002800D15E
:101DB000704780B50C210020FFF7E4FF2E481E215C
:101DC0000160E121016001BD38B584B02B48407845
:101DD000002801D105B030BD00F04AFD284C21009B
:101DE0000C3100F0D1FA9625AD0004226946280096
:101DF00000F03AFF20000C3000F0BAFA009981425E
:101E00001ED220000C3000F0B3FA0099401A009066
:101E10001C49884214D320000C3000F0A9FA0100BC
:101E200001A800F023FA01AC17480168201D00F05A
:101E30001DFA01202072092201A9280000F040FFAC
:101E4000BFF34F8F114812490860BFF34F8F00BF97
:101E5000FDE70A484078002800D1704780B5FFF7B9
:101E600069FD05481E210160E1210160FFF768FD61
:101E700001BD0000840F0040800F0040F0030020EF
:101E8000B4000020704301002C1900200400FA0562
:101E90000CED00E012E000BF00BF00BF00BF00BFBC
:101EA00000BF00BF00BF00BF00BF00BF00BF00BF3A
:101EB00000BF00BF00BF00BF00BF401E0028EAD126
:101EC0007047000080B5DBE080B500220B219C4804
:101ED00001F02BFC002201219A48D6E080B501F0E8
:101EE0007DFC01BD38B501211C2001F0F5F8944DB1
:101EF00004220B21280001F0E7FB924C042201216F
:101F0000200001F0E1FB00220B21280001F00DFC74
:101F100000220121200001F008FC403C042207219E
:101F2000200001F0D1FB01220721200001F0FDFB80
:101F300031BD38B501211C2001F0CEF800F05AF86F
:101F4000814D02220421280001F0BEFB0222022161
:101F5000280001F0B9FB7B4C02220B21200001F08C
:101F6000B3FB02220521280001F0AEFB0222002172
:101F7000200001F0A9FB02220621280001F0A4FBA9
:101F800002220721200001F09FFB022206212000EF
:101F900001F09AFB04220B21694801F095FB042211
:101FA0000121200001F090FB02220021200001F01D
:101FB0008BFB02220B21200001F086FB02220C2168
:101FC000280001F081FB02220B21280001F07CFB9C
:101FD000FFF73FFF01220221012001F0E1F8012279
:101FE0000221022001F0DCF801220221032001F08D
:101FF000D7F831BD38B501211C2001F06DF8524CE5
:1020000002220F21200001F05FFB4D4D042201212F
:10201000280001F059FB01220121280001F085FB75
:1020200001220821200001F04FFB09220821200095
:1020300001F094FB403404220521200001F044FB10
:1020400002220421200001F03FFB04220321200092
:1020500001F03AFB01220321200001F025FB0122BF
:102060000421200001F020FB01220521200001F0C5
:102070001BFB01220221002001F092F831BD80B546
:10208000020000D0012207212F4801F04EFB01BDC4
:1020900080B5FFF789FE002000F0DEFF012100205F
:1020A00000F0C8FE002000F048FF0021012000F0F1
:1020B000C1FE0021022000F0BDFE0121032000F03E
:1020C000B9FE0021042000F0B5FE002000F0E2FF80
:1020D000002000F0F1FF01F039FAFFF765FE01BDC5
:1020E0001A481B4908601B481B49086000201B490F
:1020F00008601B491B4A11601B4908601B491C4AA8
:1021000011601C490860704710B5FFF712FF962454
:10211000A40119488078002802D0200001F03EFC7C
:10212000200001F0C4FD01F062FE01F08FFF02F01B
:1021300014F8FFF7E7FD00F03BFAFFF7D1FF10BD01
:10214000401C0240400C0240000C0240954300003D
:102150003411002097430000381100203C1100206A
:10216000ED430000441100204811002041450000CB
:102170004C11002014000020F003002010B50300D3
:102180001000002202E01C5D0019521C94B28C4227
:10219000F9D380B210BD00B56F4908686F4A50434B
:1021A0006F4A801808606F4902F060F8080000BDAF
:1021B00038B504000D00FFF7EEFF291B491C02F0A3
:1021C00041F8081932BD10B5674B03E00C78047074
:1021D000491C401C1400E2182404F7D110BD0B0068
:1021E000110000D1704780B51A0002F05BF801BD04
:1021F0000178407800020843704701784278120263
:102200000A43817809041143C078000608437047E7
:1022100030B50178427814020C43827812042243CC
:10222000C47824061443037922004479250214005B
:102230001D43827913042B43C07901062000194302
:1022400030BDC178827812020A43417809041143F3
:1022500000780006084370470170090A4170704712
:1022600001700A0A4270090C8170704701700A0AF5
:1022700042700A0C8270090EC170704710B50400DC
:1022800022701004000E6070100CA070100EE07030
:102290002371180A6071180CA0711A0EE27110BD3A
:1022A00081700A0A4270090C01707047C1700A0AF5
:1022B00082700A0C4270090E0170704738B5020036
:1022C0000B00FF21002A12D000240DE0010008E0DD
:1022D000105D4840C1B2082548000906F6D587219F
:1022E00041406D1EF8D1641C9C42F1D3C8B232BD8E
:1022F00078B5030000241C480CE0280007E01D5DB1
:10230000684008264508C007F7D528005040761ECB
:10231000F8D1641C8C42F2D380B272BD78B5030050
:102320000C00002500210EE0010009E0585D0002CC
:1023300048400100082648000904F5D51100414035
:10234000761EF8D16D1CA542F0D388B272BD80B55F
:10235000064AFFF7E3FF02BDF02700206D4EC6419D
:1023600039300000FFFFFF7FFFFF00002110000059
:10237000C3788278417800781B021A43090212045C
:10238000084310437047000084460870000A4870F4
:10239000000A8870000AC8706046704780B5020065
:1023A00007216B484DE001206A490A6802430A6030
:1023B0000A6852080240FBD00A6882430A600A6831
:1023C00052080240FBD1704710B561490A68754B4D
:1023D0001340027892030C0C22401A430A600278E0
:1023E000002A08D10A6807239A4380784007400FE3
:1023F000104308600FE0012A0DD14078402801DB2E
:10240000042010BD0A68684B13400002FC229201B0
:1024100002401A430A60002010BD38B505004D4C3B
:1024200000220321200000F07BFE00220421200076
:1024300000F076FE2A000621200000F071FE31BD7A
:102440005A4800F06DFE01BD30B502000120FF24A6
:10245000A41CA24210DA714B1C68714D2540C903BF
:10246000C4032140294319601968490A4902D20569
:10247000D20D0A431A6030BD042030BD10B5FA23D6
:102480009B000121464A1468E4090C400ED05468B0
:102490000C4354601C00631E002C03D05468640875
:1024A0000C40F7D0002B01D1092010BD93680370B8
:1024B000D36843701368DB080B40136901D1DB0656
:1024C000DB0E8370936903715369C370D3694371E1
:1024D000136A83715068884350601068C0090840CF
:1024E00003D0506840080840FBD1002010BD30B533
:1024F000FA239B000121164A1468E4090C400AD013
:1025000054680C4354609B4C1B191D041ED0556825
:102510006D080D40F8D0037893604378D3608378DA
:102520001361037993614379D36183791362C0782E
:1025300050615068884350601068C009084003D05B
:10254000506840080840FBD1002030BD092030BD54
:10255000001400400414004038B504000020FFF7C8
:102560001DFF20780E4D296808229143C0001040BD
:1025700008432860601CFFF727FF20796968C84A74
:102580000A400002E021C9000140114369606179FD
:10259000E088FFF759FF20000830FFF7A8FF31BDA2
:1025A00000140040FFBFFFFFFFC0FFFF0414004006
:1025B000F8B5BC48BC4908600121142000F08CFD2E
:1025C00001206946087000220A71487088705522FF
:1025D0000A7205224A7209228A7216230B73032398
:1025E000CB724A7320228A734871FF20C8806846E4
:1025F000FFF7B2FF0020FFF710FF00220321AB48D6
:1026000000F08EFD00220321172000F0C9FD0120FB
:10261000FFF7C4FEFFF7C7FE05B000BD3014004051
:10262000FF7FFFFFF0B585B005000C0001A800BFDB
:10263000A5A1102201F076FEE12636019C48072173
:1026400040567043281800909A4F390001F00EFE52
:10265000451C0098390001F009FE0F0038003100D8
:1026600001F004FE20713800310001F0FFFD0E0082
:1026700030003C2101F0FAFD607130003C2101F096
:10268000F5FDA1718C48207007206070FF206E302E
:102690000300267861780906090C0E430321421CC9
:1026A0000E4202D1130000E00300AB4213D2ED1A38
:1026B000237866783606360C33435B1C23701B0A7E
:1026C0006370237866783606360C33430B42EBD1C1
:1026D000E8E7A17011E0237862781206120C134328
:1026E00001AA0B4201D11D2191700121535CAB4223
:1026F000EFD2ED1A491C0D29F8D3E57005B0F0BDF5
:1027000018B587B00400684673A11C2201F00AFEC8
:10271000207861780906090C08432178627812064E
:10272000120C1143FF226E3242438808101869468A
:10273000A2785200895A4018E17840185F49401841
:10274000217862781206120C1143890703D1A1780F
:10275000032900D2401E574948432179E122120142
:102760005143401861793C2251434018A1794018E7
:1027700008B010BDFFFF0000D0B50600642101F0D5
:1027800061FDCCB23000642101F05CFD0602200046
:102790000A2101F057FD0701374320000A2101F00B
:1027A00051FD0800384380B2D0BD3EB504006D46EF
:1027B000E078FFF7E1FF2871207861780906090CBD
:1027C00008433F4988420ADB207861780906090CF2
:1027D0000843FA21C900401A2070000A607020786E
:1027E00061780906090C0843C0B2FFF7C5FFA8715C
:1027F000A078FFF7C1FF68712079FFF7BDFFA870CF
:102800006079FFF7B9FF6870A079FFF7B5FF28700E
:102810006846FFF76CFE37BD01090A2251430007E5
:10282000000F0818C0B270473EB504006846FFF7B5
:1028300025FE6D462879FFF7EFFFE070A879FFF7D6
:10284000EBFFFA21C90040182070000A6070687917
:10285000FFF7E2FFA070A878FFF7DEFF207168782D
:10286000FFF7DAFF60712878FFF7D6FFA07137BD58
:10287000F8B56846FFF7D8FF6846FFF741FF05B097
:1028800000BDF8B5694604E07047F8B569460D4AE1
:102890008018FFF7C7FE6846FFF787FF05B000BD49
:1028A000FFF8FFFF414500004C11002004140040D8
:1028B000A000002080510100B20700004905F5FF8B
:1028C000D10700006F3DD512001F1C1F1E1F1E1FC9
:1028D0001F1E1F1E1F000000000000001F003B0005
:1028E0005A0078009700B500D400F30011013001C0
:1028F0004E01000010B5AE4C21000831FB208002D3
:10290000FFF742FD21000C31FA208002FFF73CFD69
:1029100021001031F4208002FFF736FD2100143130
:10292000F2208002FFF730FDA248A349086010BDE5
:1029300010B5A24B04E00478401C0C70491CD2185E
:102940001404F8D1012010BDF1B582B0800537D153
:102950000E000027029801F07FFB002830D13400E0
:102960000025029E6019027841780902114382789D
:1029700012040A43C07801061143701901F078FB74
:10298000002804D12D1D8020C0008542EADB02967C
:102990002600B44C8025ED002A0021000298FFF7A4
:1029A000C7FF0020E15DF2191378994202D1401C63
:1029B000A842FAD3A84205D07F1C032FCAD304E053
:1029C0000020FEBD012069460870032F02D30020BD
:1029D0006946087068460078FEBDF8B50500B6483F
:1029E000054234D10091084031D1B44C8027FF001A
:1029F0003A0021002800FFF79BFFBE1E0022310095
:102A0000A01CFFF7BBFB2178C2B2914204D16178D0
:102A10000004000E814218D0002D18D03A00210089
:102A20000098FFF785FF00223100A01CFFF7A6FBEE
:102A30002178C2B291420AD161780004000E81422D
:102A400005D121002800FFF77FFF0020F2BD012003
:102A5000F2BDF8B506000F0014001D00FFF7F9F9EC
:102A6000FEF768FF39003000FFF7B7FF060009D115
:102A700006980021914A03E06318D35C6B54491C0B
:102A80008142F9DBFEF75CFFFFF7E3F93000F2BDAE
:102A9000FBB582B015000A9F0126FFF7DAF9FEF7B1
:102AA00049FF03990298FFF798FF0021834C009596
:102AB00004980AE0009A5218A218037815789D42EB
:102AC00000D000261370401C491CB942F2DB002ED6
:102AD00016D10022B349A01CFFF750FB2070000A5A
:102AE000607021000298FFF72FFF0398002807D09D
:102AF0002F484079002803D021000398FFF724FFD6
:102B0000FEF71EFFFFF7A5F9002005B0F0BDF8B5F0
:102B100084B01400684D2A000240860AB602471AA3
:102B200001D5784200E03800002901D005402ED1BF
:102B300027000024022A00D2022203911D000290E5
:102B400007E08020C00036182418022268468088DA
:102B50003F18A8B200281BD010188021C900884255
:102B6000684602D9891A818000E0858080882D1A04
:102B70000398002801D00298341A68468088009093
:102B80003B0021003000FFF783FF0028D9D001204F
:102B900005B0F0BD10B51300834A8218834CA242E1
:102BA00001D3012010BD0A000021FFF7B0FF10BDC6
:102BB000F00300200197010098060020FFFF0000AD
:102BC000F8B584B014003C4D2A000240860AB602D3
:102BD000471A01D5784200E03800002901D00540AD
:102BE0002ED127000024022A00D2022203911D00C8
:102BF000029007E08020C0003618241802226846A0
:102C000080883F18A8B200281BD010188021C90066
:102C10008842684602D9891A818000E085808088D0
:102C20002D1A0398002801D00298341A684680882B
:102C300000903B0021003000FFF70BFF0028D9D0A7
:102C4000012005B0F0BD10B51300574A8218574C4B
:102C5000A24201D3012010BD0A000021FFF7B0FFFE
:102C600010BD0000000C0020F1B50D001400504E06
:102C700030000C30FFF77CFB002802D1FA27BF029E
:102C800004E030000C30FFF773FB07003000083021
:102C9000FFF76EFB002802D1FB20800203E030002A
:102CA0000830FFF765FB23002A00009C3919001942
:102CB000FFF786FFF2BD0000FF03000000080020C0
:102CC000F1B50D0014003A4E30000C30FFF750FB08
:102CD000002802D1FA27BF0204E030000C30FFF7D1
:102CE00047FB070030000830FFF742FB002802D105
:102CF000FB20800203E030000830FFF739FB23009F
:102D00002A00009C39190019FFF701FFF2BDF8B540
:102D100004000D00264F38001430FFF729FB00286F
:102D200002D1F226B60204E038001430FFF720FB8F
:102D3000060038001030FFF71BFB002802D1F420FA
:102D4000800203E038001030FFF712FB2B00220056
:102D50003100FFF735FFF2BDF8B504000D00144F48
:102D600038001430FFF704FB002802D1F226B60227
:102D700004E038001430FFF7FBFA0600380010308A
:102D8000FFF7F6FA002802D1F420800203E03800B1
:102D90001030FFF7EDFA2B0022003100FFF7B7FEED
:102DA000F2BD0000FE0300000000FEFF01F801007C
:102DB000F003002038B504000D00FEF7BBFD2B002A
:102DC0002200FE218902FF208002FFF7A0FE0028DA
:102DD00000D011E014E038B504000D00FEF7AAFDA4
:102DE0002B002200FE218902FF208002FFF7E8FE6F
:102DF000002800D000E003E0FEF7A2FD012032BD74
:102E0000FEF79EFD002032BDC37982791B021A4372
:102E10004379120401791B021943C3781143827864
:102E20001B021A434378120400781B021A43104312
:102E300070470000FEB50C0000216A4611707B4D02
:102E40007B49A9607B49A9600127210000D00124AA
:102E5000296A019126003A070121C943002806D0BA
:102E6000022824D00ED3042844D02DD35DE0286856
:102E700001400E432E60002C5AD0E868C00A38404A
:102E800056D1FAE7286A02432A6270480168032291
:102E90000A430260286802218843710001432960C7
:102EA000002C45D028698009384041D1FAE72868CC
:102EB00004218843B10001432960002C38D068699F
:102EC000000B384034D1FAE7286A02432A6260488E
:102ED0000168C02212020A43026028680821884360
:102EE000F10001432960002C22D0A86980093840F4
:102EF0001ED1FAE7286A574A02403004104328627C
:102F00005C480268114031430160C820FEF7C2FFEF
:102F1000286810218843310101432960002C07D023
:102F2000E86B800C384003D1FAE70420694608704A
:102F30000198286268460078FEBD80B53B493C4A4E
:102F40008A603C4A8A600A68E0239A434001034051
:102F500013430B6000F042FC002002BDF8B50020D6
:102F600045490A884B888C88CD886E46098C31800B
:102F70002E490E68464F3606760F06D0022E20D018
:102F80001DD3042E29D026D34BE0C8683840904288
:102F900001D1464845E0C8683840984201D14448CC
:102FA0003FE0C8683840A04201D1424839E0C868D3
:102FB0000740AF4201D1464833E0464831E054482B
:102FC0002FE0684600884A699205920D904202D12E
:102FD0009620000225E0C80B23E0C86B8007800F15
:102FE000032819D1C8683840824201D12F4814E023
:102FF000C8683840834201D12D480EE0C868384087
:10300000844201D12B4808E0C8680740BD4201D185
:103010002F4802E02F4800E03D48CA6BD205120F4E
:10302000504309684905490FC840F2BD00200040DF
:103030005A5A0000A5A5000080B5FFF78FFF41494F
:103040000968C904890FC84002BD00004C1D024038
:103050008C0D0240FFFFFEFF07494000085A3C4923
:103060000A68D20AD2024005400D104308600020D1
:103070007047000000240040000C10003949400057
:10308000085A39490A68920A92028005800DECE7D5
:10309000FF0700002B49354A8A60354A8A600A6872
:1030A000344B13400002E022D20034E000366E01BF
:1030B000408651010024F40022492C4A8A602C4A9F
:1030C0008A600A682C4B1340C002C022520122E0E1
:1030D00000127A0000093D0070B50C00810610D581
:1030E000DF260640254D22003100280000F018F8A8
:1030F0002348032E01D1047008E002780321280040
:1031000002E0220001001F4800F00AF8002070BD14
:103110000048E801120102401A430A60002070478B
:1031200081B001238B40012A016802D10B43036067
:1031300001E09943016001B070470268CA40D007BE
:10314000C00F7047002000400F4903E0000000005E
:103150000C2000400A6882430A600A681043086035
:1031600070470000000C1000142000405A5A000064
:10317000A5A50000FFF8FFFFFFE7FFFF24200040A8
:10318000901000202020004028200040002800D17E
:10319000704780B5002901D001F0ACF801BD0000F6
:1031A00078B50123C406E40EA3409E4C2360C400FE
:1031B00018252540FF26AE40F4438907090EA94093
:1031C000050007D5A84D0007000F083880088000CB
:1031D000281803E0A548AD08AD00401905682C404B
:1031E00021430160012A01D1A14800E0B5480360F4
:1031F00071BD81B0B4480068002803D100900098E8
:103200000028FCD001B0704780B500BF00BF01BDF1
:1032100070B506000125B540AC4C20000830FFF722
:10322000A7F8284024D1201DFFF7A2F8211D28432C
:10323000FFF7AAF820000830FFF79AF821000831BC
:103240002843FFF7A1F8300001F086F8201DFFF7B2
:103250008FF8EE43211D3040FFF796F8200008302C
:10326000FFF786F82100083106403000FFF78CF8A0
:1032700070BD80B594480068002869D100F0FBF962
:10328000410704D50220FFF7C3FF02215DE0C1061C
:1032900004D50120FFF7BCFF042156E0810604D5C8
:1032A0000420FFF7B5FF05214FE0410604D50620B5
:1032B000FFF7AEFF062148E0010604D50920FFF71D
:1032C000A7FF072141E0C10506D5AF4800680028E7
:1032D00000D08047082138E0810504D51120FFF790
:1032E00097FF092131E041050BD5A848FFF740F8C9
:1032F000C00704D4A6480068002800D080470A21EF
:103300002FE0010504D50E20FFF782FF0B211CE002
:10331000C10404D50F20FFF77BFF0C2115E08104C9
:1033200004D51320FFF774FF0D210EE0410404D5EE
:103330001420FFF76DFF0E2107E0000408D5954823
:103340000068002800D080470F21002000F097F986
:103350000B21002000F093F90721002000F08FF9E5
:103360000621002000F08BF901BD8B480068002881
:1033700000D0704780B5402000F07DF9C10704D52A
:10338000052000F0E9FF002113E0410604D50820E4
:1033900000F0E2FF06210CE0010604D5072000F052
:1033A000DBFF072105E0000506D5032000F0D4FF70
:1033B0000B21402000F063F901BD7047764800689A
:1033C000002800D0704710B582246401200000F06E
:1033D00052F9000506D50A2000F0BEFF0B2120009F
:1033E00000F04DF910BD6C480068002800D070470F
:1033F00080B500BF00BF01BD67480068002800D04D
:10340000704780B500BF00BF01BD2F48006800288D
:1034100000D0704780B561480068002800D0804720
:1034200001BD000080E200E080B500BF00BF00BF2A
:1034300000BF01BD24480068002800D0704710B5C7
:10344000574C0021200000F095FB00280AD00021F5
:10345000200000F094FB53480168002902D0206846
:10346000C0B2884710BD00001CED00E000E400E0A1
:1034700000E100E0704780B500BF00BF01BD80B52E
:1034800000BF00BF01BD80B500BF00BF01BD80B55A
:1034900000BF00BF01BD80B504F0D4FA01BD80B506
:1034A00000BF00BF01BD80B500BF00BF01BD064821
:1034B0000068002800D0704780B53B48006880470E
:1034C00001BD000080E100E0841100200000002028
:1034D00080B500BF00BF01BD80B500BF00BF01BD0A
:1034E00080B500BF00BF01BD80B500BF00BF01BDFA
:1034F00080B500BF00BF01BD80B500BF00BF01BDEA
:1035000080B500BF00BF00BF00BF01BD80B500BFD8
:1035100000BF01BD80B500BF00BF01BD80B500BFC9
:1035200000BF00BF00BF01BD80B500BF00BF01BD2F
:1035300080B500BF00BF01BD80B500BF00BF00BFA8
:1035400000BF01BD80B500BF00BF01BD10B5124C6A
:1035500001202060FFF78DFEFFF707FF206800289D
:1035600004D10E480068002803D080472068002856
:1035700002D10D480068804700BF00BF00BF00BFF8
:103580000020206010BD0000301100200800002045
:10359000381100202C11002084110020441100203B
:1035A00000020040481100205011002070B51400A6
:1035B00005000E00002234482818FFF7B1FD002056
:1035C000B1006918314A8918086022783100304802
:1035D0002818FFF7A5FD627831002E482818FFF75C
:1035E0009FFDA27831002C482818FFF799FDE2785A
:1035F00031002A482818FFF793FD22793100284826
:103600002818FFF78DFD6279310026482818FFF74A
:1036100087FDA07929490A68294B1340C0038022FD
:103620001202104018430860002070BD80B5254A82
:1036300002E080B5164B03E08018FFF77EFD02BD67
:10364000C018FFF76DFD002002BD890040180F492A
:10365000401802600020704710B51300012202E0FC
:1036600010B5130000223A4C9B00E3181818FFF71E
:1036700057FD002010BD374940180068704780B5DD
:103680000022354BDCE700000C0D0240000C02402C
:10369000080D0240000D02401C0D0240200D0240AA
:1036A000240D02402C0D024080B54B4BC0188010F9
:1036B00080040014FFF7C9FF01BD0000080F02409D
:1036C000FF7FFFFF040D02407CB50C00150042494E
:1036D00040188010860007216846FFF757FD01213A
:1036E00000226846002D08D0012D09D0022D0BD0F4
:1036F000042D0DD0082D0FD011E04170C27005E0EF
:103700004170C27001710AE04170C170027106E03F
:1037100042700170427102E04270017041712100FB
:103720006A4630B2FFF742FF73BD80B52A4BC0181E
:10373000801080040014FFF77CFF01BD80B5264A8D
:103740008018801080040014FFF770FF02BD000095
:10375000300D0240000E0240100E024058B50C0021
:103760001D49411889108E00082A07D012D30A2A51
:103770000DD005D30C2A0CD004D30BE0012009E0B6
:10378000022007E00222210030B2FFF765FF03208C
:1037900000E00020C2B2210030B2FFF75DFF51BD52
:1037A00038B50C000C49401880108500012221001A
:1037B00028B2FFF755FF0222210028B2FFF750FF81
:1037C0000322210028B2FFF74BFF0022210028B27C
:1037D000FFF746FF31BD000000F4FDBF80B5FFF7E5
:1037E000BDFB3049086001BDF8B50020FFF734FC8F
:1037F0001120FFF743FCFFF7B1FB2A4908602A4874
:103800000068009028480068802149050143264847
:1038100001602648C168264A0A40C260C16C254A38
:103820000A40C2642449CA68C0231B021340CB600B
:10383000CA6C0023CB64214AD468D360D36C204C7B
:103840001C40D46403680B241C430460036C1D4CAF
:103850001C4304641C4B0C681C430C601B4C0D6C1B
:1038600025430D64156825431560194D166C2E43CC
:103870001664066A0B2737430762066E114F3743FB
:103880000766086A03430B62086E20430866106AE5
:1038900004431462106E05431566009802490860DF
:1038A000F1BD00008811002020200040000D0240E2
:1038B000F4FF0000FB080000800D0240001D0240E4
:1038C00003F9000004F70000FF3F0000FFFF0000C5
:1038D000FC06000080B500F035FEFFF785FF04F020
:1038E0000FFB002002BD000080B50122001DFFF784
:1038F00017FC002002BD80B51030FFF71EFC02BD92
:10390000002141610020704780B500221430EEE7AD
:103910000068C0B2704780B500221430E7E780B578
:10392000E3E70000FEB50D00694600BF89A218CA92
:1039300018C101D10420FEBD0400002060600420F5
:103940002E5E6888697801433143287808436060B7
:103950002878402801D0C0281ED1A86800F006FEB3
:103960000700E86869463212D20D9219521292008D
:103970008958884000F0FAFD0100380000F011FE7F
:10398000FC21890500F062FE00F0F0FE80B2A0612B
:1039900004212000FFF7A8FF0020FEBD70B586B00F
:1039A0000600102102A8FFF7F1FB07216846FFF788
:1039B000EDFB01211C20FFF78FFB00246D4600204A
:1039C00068706A460921FFF7F1FD012209210020F4
:1039D000FFF73BFE012068706A460A210020FFF7CE
:1039E000E5FD01220A210020FFF72FFE0121002022
:1039F000FFF772FB02A840210170448044700596D5
:103A0000C9008180FFF718FB04908024E40502A917
:103A10002000FFF787FF00212000FFF77CFF012136
:103A20002000FFF778FF00212000FFF778FF012238
:103A300001210620FFF7B4FB06B070BD7CB506007F
:103A4000FA20800100900825EC062069284028D142
:103A50000098411E0091002823D00120FEF71AFA99
:103A6000F3E73000364D29786A781206120C1143BC
:103A7000022602220A432A70120A6A702168FF2273
:103A80009143084320602F480090206930400DD1B9
:103A90000098411E0091002808D00120FEF7FAF995
:103AA000F3E700980028DCD5002076BD0121200036
:103AB000FFF731FF287869780906090C0843224985
:103AC00001402970090A6970012076BD7CB5FA268B
:103AD000B601002401906846018000E0641C68463D
:103AE0000088844210D20198005DFFF7A7FF05000F
:103AF0002000142100F0BAFB002901D1FEF7A9F93A
:103B0000002DEBD1002076BD10480068C00707D417
:103B10003000461E002803D00120FEF7BBF9F3E772
:103B2000300000D00120C0B276BD80B5084A1279BD
:103B3000002A01D1002002BDFFF7C8FF02BD00002E
:103B4000C800002000710200FDFF000010000040CE
:103B5000F0030020040000000300000080B503E033
:103B600080B5002201E080B50122001DFFF7D8FAE0
:103B7000002002BD80B51030FFF7DFFA02BD80B52E
:103B800000221430F2E70000F8B50D0001D1042046
:103B9000F2BD04000020606006202E5E698868780F
:103BA000084330430421695E08432978014361607A
:103BB0002878402801D0C0281ED1A86800F0D6FC83
:103BC0000700E8686DA13212D20D921952129200CC
:103BD0008958884000F0CAFC0100380000F0E1FC80
:103BE000FC21890500F032FD00F0C0FD80B2A0612B
:103BF00004212000FFF7B7FF0020F2BDF8B586B022
:103C00000700160001211C20FFF766FA00246D460C
:103C10006C706A4600214020FFF7C8FC0322002197
:103C20004020FFF712FD012068706A460B214020FA
:103C3000FFF7BCFC03220B214020FFF706FD01210A
:103C40000220FFF749FA02AD6C80300001D16C70A0
:103C500007E0022E01D1042002E0032E01D108204A
:103C60006870AC80FFF7E8F904908020C000E8801D
:103C70000597402028703F4C02A92000FFF784FFE1
:103C800000212000FFF77BFF01212000FFF777FFD5
:103C900001212000FFF764FF00212000FFF75EFFF5
:103CA000012203210820FFF77BFA07B0F0BD80B5A1
:103CB00000220821FFF7A2FF01BDF8B50400FA2594
:103CC000AD01009508272B4E306938401BD1009874
:103CD000411E0091002816D00120FEF7DBF8F3E723
:103CE0003068FF2188430443346000950224306922
:103CF00020400DD10098411E0091002808D00120DD
:103D0000FEF7C8F8F3E700980028E9D50020F2BDD7
:103D10000120F2BD7CB5FA26B60100240190684668
:103D2000018000E0641C68460088844210D201983B
:103D3000005DFFF7C2FF05002000142100F096FA95
:103D4000002901D1FEF785F8002DEBD1002076BDCA
:103D500009480068C00707D43000461E002803D079
:103D60000120FEF797F8F3E7300000D00120C0B241
:103D700076BD000000020040100200400400000078
:103D8000030000000200000010B5002202600123C1
:103D900043600B784C781C438B782343C9781943D4
:103DA00040230B4303608260002010BD0122836822
:103DB0009B081340FBD0C160816849081140FBD0CB
:103DC000C068C0B270471CB5040001210620FFF78F
:103DD00083F94020FFF7B8F9002069464880802029
:103DE0004870102008702000FFF7CEFF13BD80B58B
:103DF0000948FFF7E8FF01BD10B50400002060602E
:103E00002000FFF7D3FF0121616010BD80B50100E4
:103E10000148FFF7F1FF02BD0008004070470000B5
:103E2000F0B589B006000F0000255048009001A8A9
:103E3000202100F061FA012E0BD0022E09D0042EB1
:103E400007D0062E05D0082E03D00C2E01D004205A
:103E50002DE020480268694911407A02430D1A405A
:103E60000A43026013A101AFAA008B587343BB50F1
:103E70006D1C082DF8D300213C4F00978A00604B41
:103E80009B1804E0374DC560374DC5601C6001AC20
:103E9000A4581D68A54206D0009D6E1E0096002DF8
:103EA000F0D1072003E0491C0829E6D3002009B01F
:103EB000F0BD000020000000170000001B00000003
:103EC00050460000E022020018000000F000000050
:103ED000E803000020000240F3B583B0234C0094B7
:103EE00003988021C902884201D3042038E000945D
:103EF000524D012628680009304024D00098411E08
:103F000000910028F6D109202AE0009A531E009360
:103F1000002AF8D0E860EF602A68019B1340334321
:103F20002B602A680A40012AEFD10498039908609F
:103F300000942868000930400FD00098411E00917D
:103F40000028F6D1DFE700F064F800940320C043B6
:103F50000190054F38480321E3E700F053F80020B3
:103F600005B0F0BD5A5A0000A5A50000FFFFFF00F4
:103F7000F1B582B0324C009402988021C902884287
:103F800001D30420FEBD009401272C4D28680009B0
:103F9000384025D00098411E00910028F6D1092014
:103FA000FEBD009B5E1E0096002BF8D0E960E86025
:103FB0002E68019B334002261E432E602B6813405F
:103FC000022BEED1002002990870009428680009A5
:103FD00038400FD00098411E00910028F6D1DEE74E
:103FE00000F017F800940320C043019015481249CF
:103FF0000322E3E700F006F80020FEBDFFFDFFFF0F
:104000000000024010480C4901600E4A0260002383
:1040100006E00D48084901600A4A02600023DB43BC
:10402000436001600260836001600260436101607F
:1040300002608361704700005A5A0000200002406D
:10404000FFFFFF00A5A500002C00024080B5012164
:104050000120FFF7E5FE01BD38B50400FFF788FF3A
:104060000500802080002018FFF782FF281832BD4D
:1040700080B5FFF731FF02BD80B50A000A2112E0CA
:1040800080B50EE080B500211030FFF756F802BD74
:1040900080B500220021143006E0006880B270472D
:1040A00080B50A0000210C30FFF73AF801BD30B5A9
:1040B000FA2292000B78C4685A4D2540DB02E024B6
:1040C000A4011C402C43C4604B78C4683025AC4329
:1040D0001B011D402543C5608B78C468524D2540A7
:1040E0005B028024A40023402B43C360CB78C468C8
:1040F0004E4D25401B028024640023402B43C360A7
:104100000B79C4680825AC43DB002B402343C36014
:104110004B79C4680425AC439B002B402343C36008
:104120008B79C4680225AC435B002B402343C360FA
:104130003F4B1400E218240403D0C4682506ED0F99
:10414000F7D0120401D1092030BD09894268120C50
:10415000120411434160002030BD3EB53548364958
:1041600008600A216846FFF711F801210920FEF7CF
:10417000B3FF01212420FEF7AFFF00206C46207022
:10418000608002216170A080A07120812B4D694662
:104190002800FFF78CFF0120A071294C6946200000
:1041A000FFF785FF2800FFF773FF2000FFF770FF80
:1041B00001212800FFF760FF01212000FFF75CFFCD
:1041C000012203211120FEF7EBFF01212800FFF758
:1041D00067FF00212000FFF763FF37BD70B50400C3
:1041E000FA26B600164D00212800FFF749FF0120EE
:1041F0000F4932005618120403D0EA68D20902406F
:10420000F7D06868000C0004091B89B2014369609B
:104210002800FFF73DFF01212800FFF731FF70BDA7
:1042200000000000FFC7FFFFFFFDFFFFFFFEFFFFD5
:10423000FFFF0000817B000050110020000F0040B4
:10424000400F0040CA0F00D0494203105A400DD021
:1042500004B500D3404200F009F8009AD20701D318
:104260004942124200D5404204BD0000094214D028
:1042700088420FD30122030C01D100041204002351
:1042800000185B418B4200D35B1A5241F8D31900EE
:104290001000704701000020704708B500F084FA54
:1042A00008BD00001206130A1A43130C1A4300BF7C
:1042B000094205D0830705D00270401C491EF9D180
:1042C00070470000130030B414001500103902D3F9
:1042D00010393CC0FCD2490700D30CC000D504C043
:1042E000890002D30280801C002900D5027030BCF6
:1042F000704700000022DBE70022E3E7124207D00C
:104300008B0706D00B78491C0370401C521EF7D84F
:104310007047830706D00B78491C0370401C521E5F
:10432000F9D1704770B4103A03D378C9103A78C005
:10433000FBD2530701D318C918C001D508C908C05A
:10434000D20704D30B880380891C801C002A01D566
:104350000B78037070BC704710B504007049087882
:104360004A781206120C1043000AC00708D5042C24
:1043700002D10BF01BFF03E0032C01D10BF017FF60
:1043800068480168002901D020008847022002F017
:104390005FFB10BD704764488078002800D17047EB
:1043A00010B5624C0A212000FFF7FAF901220A2118
:1043B0002000FFF779F95E48017902220A43027171
:1043C000017842781206120C114301220A4302704E
:1043D000120A4270574CFF202074211D0120FDF766
:1043E000D3FF21000520FDF7CFFF10BDF8B54E4EDD
:1043F000B078002800D192E08025ED05002128004A
:10440000FFF779FA002800D17FE002212800FFF7AA
:1044100072FA002879D100212800FFF775FA404987
:1044200008784A781206120C10430127414C000A02
:1044300038420FD04048FDF79BFF8003800F0228D1
:1044400008D0201DFDF794FF002803D1211D042072
:10445000FDF79AFF201DFDF78BFFFF2124318842D5
:1044600004D33648FFF754FA00903FE02800FFF7E6
:104470004FFA694608703079002828D0201DFDF7D2
:1044800077FF002811D168460078FF280DD0201D45
:10449000FDF76EFFFF21220010321154201DFDF7A1
:1044A00067FF211D401CFDF76FFF201DFDF760FF1A
:1044B00001280CD168460078FF2804D1211D002076
:1044C000FDF762FF03E068460078AA280ED168462F
:1044D0000578201DFDF74CFF210010310D54201DE3
:1044E000FDF746FF211D401CFDF74EFF2100042073
:1044F000FDF74AFF0E48017842781206120C11436C
:104500000F4307703F0A477006E02800FFF700FAE4
:1045100000902800FFF7F4F9042002F099FAF1BDA9
:10452000700200203C110020F0030020000C02402B
:10453000C8000020200400200000002000010040EE
:104540007047000010B5074979441831064C7C4487
:10455000163404E0081D0A68891888470100A14242
:10456000F8D110BD885B0100785D01009D2102003B
:104570000AD002D4491E9218FCD5C905100A1206A9
:10458000524100D3012A4841704700009D2102009A
:10459000EED55242F446FFF7EBFF0122D20710435B
:1045A000604730B405004D400122D20715404B183A
:1045B0000418240E28D01B0E2FD0FF2C34D0FF2B34
:1045C00037D0E41A00020902104311434308480897
:1045D000D10D1B1A02D2641EDB181B18DB18834294
:1045E00000D31B1A4941F9D37F3426DDFE2C08DAAB
:1045F000E4054808C907194391416041284330BC8C
:104600007047FF20C005F9E728001B0E03D0FF2BE1
:10461000F5D14902F3D0D043F1E7FF2C01D140029C
:10462000F9D1FF20C005E9E74002F4D1FF2BF8D112
:10463000F1E728004902E2D0EDE70B020020244216
:10464000DCD15B129B1CD9D9D805D7E70122D20750
:1046500003004B402ED4431A01D2C01AC91830B4FB
:104660004B180418240E1B0E22D0FF2C20D0E31A66
:10467000182B1DDC09021143C40D641E00021043F7
:1046800094461925ED1A0A00AA40D940451801D3CD
:104690006D08A41CE405D209280A2D062A436546A4
:1046A000AA41604103181B0EFF2B01D3C00DC005AA
:1046B00030BC7047514006E05140CCE70122D207A0
:1046C00003004B40F8D4431A03D2C01AC918504013
:1046D000514030B44B18090211430418240E1B0E2C
:1046E00040D0FF2C3AD025009D410BD31ED8C50DDC
:1046F0004002401A0BD3ED050100400AC905914163
:104700006841D5E7C50D40024918401AD0D00121B3
:104710004008491C0018FCD58C4204D36D1A000ACD
:10472000ED054019C4E7E8051040C1E7182DBFDCCE
:10473000AC1C0D00E140E5414D40012D4941C40D47
:1047400000021043451A01D46D199543641EE40517
:10475000280A2D069541604130BC7047FF2BA7D138
:10476000D843A5E72442A3D10020A1E70122D20724
:104770000118090E7F3910D449421F310FD4001897
:1047800005D2C0011043C84000D5D0437047C001D6
:104790001043C84005D44042704700207047004293
:1047A000F3D51000704700007047000010B50028D6
:1047B00001D1042010BD194901220A600A6843781A
:1047C0000424045F23430624045F23430224045F7C
:1047D00023430824045F234313430B6002784B6890
:1047E0000F4C1C4092020B0D1A4022434A60807A03
:1047F0004A6804239A438000184010434860002010
:1048000010BD06490A681D4B13400001F8225200F2
:1048100002401A430A600020704700000424004050
:10482000FFFBFFFF3EB5040001211020FEF754FC02
:10483000002168460170418080221201C28081728D
:104840000125604A0223002C146809D02543156015
:10485000146823431360120C02810C22427008E09A
:104860002340136013681D40156041700181C02111
:10487000C9008180FFF79AFF37BD00000FFEFFFFE0
:10488000F8B58AB00400642069464880474F6846FE
:1048900007800025142601A84EA12422FFF742FD1F
:1048A00020000AD00A2C08DA01A8A1004018001F35
:1048B00004680020C043844201D1380038E0E0B2EF
:1048C00001271B2801D1012503E01C2801D1012566
:1048D00028262800FFF7A6FFE0B2FFF792FF344C2E
:1048E000344D6069284060613000FDF7D3FA2762DB
:1048F000009E36142069384007D13000461E00045F
:1049000003D00120FDF7C6FAF4E736B2012E02DB30
:104910002068694608806069054065610020206262
:10492000FFF780FF28480168B943016068460088A6
:104930000BB0F0BD80B51B20FFF7A2FF2349414318
:10494000C812000D40180001000C02BD80B51C20EB
:10495000FFF796FF18490988401A00F087F817A258
:104960000CCA00F08DF80022194B00F04BF900F052
:1049700023FAFFF7FBFE00B202BD000038B50500C8
:104980001B20FFF77DFF0400E8B2FFF779FF0F4916
:104990006143CA12120D511809134143080BFFF766
:1049A000E5FDFFF7E3FE80B232BD0000FFFF00002F
:1049B000A0240040FEFF0000340C100015AE47E1BB
:1049C0007A14F33F002400400424004094110000B6
:1049D00000406F40040000000200000012000000D0
:1049E000050000000800000006000000FFFFFFFFB8
:1049F000FFFFFFFF0700000009420BD500B50022B2
:104A000049424042914100F005F80122D20711438A
:104A100000BD094218D044221201094203D4521E9B
:104A200000184941FBD5D21E1205A4464C05C90AFF
:104A30000300C00A604064465B055B4100D3012B64
:104A40000023584151417047010000E0010042221B
:104A50001201D21E004207D002D4521E0018FCD50B
:104A6000C10A400512058918704700000100EED503
:104A70004042F446FFF7EBFF0122D20711436047A3
:104A8000F0B50E005E400125ED072E40B446AE0A9B
:104A9000DF184C18F44208D2F7420ED2640D01D050
:104AA0007F0D12D100206146F0BD05D1F74201D83B
:104AB0007F0D05D10020C143F0BDFBD1640DF9D0BD
:104AC0000020C143490549088FE0E419C902DB020F
:104AD00029432B43DB0A460DC00231438E4630B4D6
:104AE00087B295B27D432E0CADB2140C7C43A41951
:104AF000260C240425439CB27C43A419190C794349
:104B0000270CC919A4B20F043C43090C000C97B23E
:104B100047432E0CBE193543ADB2170C4743360C34
:104B2000BF19A6B2BF193E043543240C3E0C3619FA
:104B30009FB24743BF19BCB23E0C89191F0C4743B3
:104B40007F183E043443390C704680B297B2474315
:104B50002E0CBE193543ADB2170C4743360CBF19A6
:104B6000A6B2BF193E043543240C3E0C36199FB241
:104B70004743BF19BCB23E0C89191F0C47437F182D
:104B80003E043443390C77463F0C90B278432E0CE8
:104B900080190604ADB22E43050CA0B22D18120CDC
:104BA0007A435019020C80B2240CA4189AB27A43AA
:104BB000121914042043120C89181B0C7B43C918CA
:104BC00030BCEF0A394203D1B61940414941641E55
:104BD0006F12BF0DE41B0BDBFF19BC4211DA240579
:104BE00000274208AE417841614166463143F0BD3D
:104BF000641C05D1401C6141CF0201D34908F4E790
:104C000050E75DE7F0B40125ED070F005F404FD49A
:104C10008B4200D1824205D98446100062468C4600
:104C200019006346DF184C18640D7F0D3AD0661CDE
:104C3000760537D0E61B352E34DCDB022B43DB0A4E
:104C40000C0DC9022943C912202E0DDB1700203E8E
:104C500006D01F00F741F3405F400026012A77414C
:104C6000C01871410DD217E01700F741F2405740CC
:104C7000F3415A40B340F3405A400026801859414E
:104C80000AD3A21C52050FD0C207012F7241170090
:104C90004008CB0718434908641C24054208AF416B
:104CA00070416141F0BC7047641C21050020F9E7A8
:104CB0006B4010E06B40ABE7F742F3D1E943F1E71B
:104CC0002442EFD100200021ECE7F0B40125ED07EC
:104CD0000F005F40EED40C00871A9C4105D2C01B28
:104CE000A141D219634169406B40AE0ADF184C18EC
:104CF000F442E1D2640D7F0DE2D0E61B362ED1DC0A
:104D0000DB022B43DB0AA4460C0DC9022943C90A66
:104D1000012E28DC04D1D6075208DF073A435B088E
:104D2000EF0A76429041994114D039423BD1B619ED
:104D300040414941761C394204D1761C0018494152
:104D40003942FAD0B9436746B74208D9A41B2405B3
:104D50002143A7E70042EAD13642E8D1A2E7E40ABC
:104D6000E10700209EE7202E0BDD203E1F00F340D0
:104D7000F7415F40012A002257417E42984191410C
:104D80000BE01700F741F2405740F3415A40B3405F
:104D9000F3405A407E42904199410A0303D2641E77
:104DA000B619404149410027641E24054208AE411E
:104DB00078416141F0BC7047012252054B18DA423C
:104DC00001D9581570475B0D0722D2019B1A10D9E3
:104DD000FF2B1DD2DB050122D2070A401343090332
:104DE000020D1143490AC200524100D9491CC8189A
:104DF00070470AD1800A0A0302435212921C04D956
:104E0000D3070B40D00518437047C80FC007704741
:104E1000C80F0002FF30C005704700003A490A6819
:104E2000042313430B6004E037490A6804239A43C0
:104E30000A600A68022318401043086030BF7047B8
:104E4000F8B501270724314D314E02E02420FDF74B
:104E500021F8B079F1790906090C08434119B171BB
:104E6000090AF17100280DD0307920420AD130783A
:104E700071780906090C08433842E7D030790221DD
:104E800001433171F1BD38B5214CA078E1780906B4
:104E9000090C084315D11F488178002911D00079E9
:104EA00000280ED000210020FEF716F91A4D02222C
:104EB0000A212800FEF708FC0A220A212800FEF732
:104EC0004DFCA078E1780906090C084303D00020C6
:104ED000FFF7AAFF31BDFFF7A1FF31BD0D48807874
:104EE000002800D1704710B501210020FEF7F4F82A
:104EF000094C0A212000FEF753FC01220A21200060
:104F0000FEF7D2FB10BD000010ED00E0FFFF000037
:104F1000C8000020F0030020000C0240F0B40E0096
:104F20005E400125ED072E40B446AE0ADF184C184E
:104F3000F4423BD2F74241D2640D43D07F0D38D0CA
:104F4000E41BC902DB0229432B43CF0ADB0A06001C
:104F5000B61A9F4104D2641EB6197F41B6185F414C
:104F60006812800D24180018844222DAE80C00210F
:104F7000B6197F41B61A9F4102D2B6185F413F1C55
:104F800040414941F4D3241C21DD2405B6197F4159
:104F9000B61A9F4105D33743C60737430026012F72
:104FA0007041614166463143F0BC7047FCD1F74225
:104FB00005D20020C14349054908F3E704D0002089
:104FC000C143F1E77F0DFAD000206146ECE72442AF
:104FD000FAD1401C61410F03F6D30020E2E730B460
:104FE000DC0F03D05B42524200D25B1E0D106C40BE
:104FF00013D0F446002502D349424042A94100F0B3
:105000000DF8E40703D35B425242AB41244202D580
:1050100049424042A94130BC604730BC124224D0D2
:10502000994228D970B500251B4202D00C000021FE
:1050300009E00024012649186441944200D3A41ACF
:105040007641F8D33100012601E0764109D20018FB
:1050500064416D41A41A9D41F7D2A4185D41B6196F
:10506000F5D3300022002B0070BD1B42D8D108B50B
:1050700000F00AF808BD01D19042D3D202000B0023
:10508000002100207047000070470000F4464918D6
:1050900006D200F013F8094201D5C817410860474D
:1050A00000F00CF8FBD00022494240429141F6D476
:1050B00000200121C9076047491824D24A0D402326
:1050C0001B01D21A0123DB071E3A09DC5242202AB7
:1050D00019DA8902400D084318430021D040704777
:1050E000524220320CD489021943430D1943C002A5
:1050F000D0400B00D341D14048405840094270474E
:10510000D817D91770470020002170474A00520D68
:10511000FF239B009B1CD21A19DD35239B1A1EDD31
:105120001300153B09DA9B41DB0AD340094201D445
:10513000401E59410020994370470022D243DA4073
:10514000094202D4002380185941904370470B0D47
:105150005B0500D0024901D30121C9070020704737
:105160000000F03F4A00520DFF239B009B1CD21A07
:1051700019DD35239B1A1DDD1300153B09DA9B4110
:10518000DB0AD340094201D5401E59410020994312
:1051900070470022D243DA40094202D5002380182A
:1051A0005941904370470B0D5B0500D0024900D276
:1051B00000210020704700000000F0BFF4464A18AC
:1051C00005D200F00FF801D580174008604700F0C5
:1051D00009F80121C907884200D908004042604708
:1051E0004A1812D2400DC90208430121C9070843D9
:1051F000520D40210901521A521C06D452421F324C
:1052000001D4D0407047C01770470020704770B479
:105210000123002413E00168001D194202D04D460D
:105220006D1E49190C60091D121F042AFAD20D00C7
:10523000960701D50C80AD1C1A4000D02C70026876
:10524000001D002AE7D170BC7047000030B4434312
:1052500051435D18010C0C00130C5C432D1980B2F6
:10526000434392B251430024C918644124040B04FF
:10527000090C09195043C018694130BC704730B45B
:10528000012464054D00EC420BD85D00EC4208D8C7
:105290000C001C4364000443144304D2994200D11F
:1052A000904230BC7047FCD08B42FAD18242F8E782
:1052B00030B4012464054D00EC420BD85D00EC4293
:1052C00008D80C001C4364000443144304D28B42EE
:1052D00000D1824230BC7047FCD09942FAD1904252
:1052E000F8E70000012212060118CA420AD28A42D7
:1052F0000DD83822120609098918C20FD2071143A6
:105300004007704700D049080909014301E0C10F77
:10531000C9070020704730B401220168001D002930
:105320000FD00368C31844680830144202D04D46B9
:105330006D1E64191D6825601B1D241D091FECD0FE
:10534000F8E730BC704790420ED1A4460C001C43D5
:105350000128644107D0994205D14C006415641CB2
:10536000644000D30C03644670470000D2B2203A78
:1053700003D308001041C91770472032D141D040F3
:1053800048409140D1404840914011417047000051
:10539000D2B2203A03D3010091400020704752421C
:1053A000D0415242203291404140D0409040414053
:1053B000704700001070030A53701B0A93701B0A99
:1053C000D37011710B0A53711B0A93711B0AD371AD
:1053D00070470000D2B2203A03D30800D040002129
:1053E00070472032D141D04048409140D1404840A0
:1053F00070470000FEF76EFA002801D0FFF7A2F810
:1054000000BF00BF002000BF00BF02F079FD00F028
:1054100000F880B500F002F801BD000007463846EC
:1054200000F002F8FBE7000080B500BF00BF024AB1
:1054300011001820ABBEFBE72600020000BF00BF32
:0854400000BF00BFFFF7D6FF1B
:105C000070B50500002459498C70594E0CCE083EE1
:105C100058480021C9431040194003C6564818216E
:105C20004D4345192800FEF765FB28001030FDF7AD
:105C3000EBF82A001032150002000B000020C043D0
:105C40004E49104019402A00FFF7B4FB534A002088
:105C50000021E300D31803C3641C202CF9DB70BDC2
:105C60007CB5474D6B70212836D0222834D01428BB
:105C700001D0232801D1052400E00324069B2C72C7
:105C80006A6029703F4C012121613F4A22606563AF
:105C9000F02B05D0142803D0232804D0202802D0CC
:105CA0000522002312E03E48058828001B1D99406C
:105CB000FEF7C8FA0E00FA208000464328000721AC
:105CC000FEF7C0FA892041437218D317200000F074
:105CD00089FF200000F0E7FF73BD7CB52B4E8120CB
:105CE0003070304D0822290030000830FCF76BFA84
:105CF0002800FDF789F80003000F84002000103011
:105D0000212800DB1024220029000C313000103043
:105D1000FCF759FA0520009023001033DBB2320063
:105D2000D5211720FFF79CFF73BD38B50C00104D2F
:105D30000CCD083D16A003C81040194003C51648F5
:105D4000FCF716FB8107C90F08D017480168002926
:105D500001D001208847FCF737F831BDF02301223C
:105D60002178607800F07CFA31BD0000181D002019
:105D7000F0110020FFFDFFFF301F0020FFFEFFFF9E
:105D8000281D0020581D00208D610000381D0020B6
:105D9000FFFDFFFFFFFFFFFF00000020301E00207F
:105DA00080110020F0020020001D0020F2B58AB012
:105DB000002004900390CF480A9909781822514393
:105DC00040180290CC4C0120A0700A98007800F096
:105DD0006BFA06906078142801D0232806D1082297
:105DE000C649C748FCF7EFF9082004900698C54952
:105DF000884200D01CE10298FDF706F804000D006F
:105E00000298FDF701F8240E2A0214430804000E3C
:105E100044430298FCF7F8FF080E201A801E80B257
:105E20000090D849884200DB02E1D74C00220146AD
:105E30002000FCF7A3F9050000982018FCF7D8F91A
:105E4000854201D101200390FBF774FD03980028DF
:105E500000D1EBE0201D07902000FCF7CEF9059063
:105E6000201DFCF7D1FF000C80003C2101400C31CB
:105E700089B201910098884200DAD9E0201DFCF730
:105E8000C3FFBF4D80235B050B4014D008AE201D1F
:105E9000FCF7BAFF03C62800FCF7B6FFB4A20CCA91
:105EA00002400B4008A803C8000E0006104319006A
:105EB0002A00FFF77FFA201DFCF7A6FF080F8007D6
:105EC00014D508AE201DFCF79FFF03C62800FCF781
:105ED0009BFFA9A6C0CE06400F4008A80CC8894960
:105EE0001940300039432A00FFF764FA201DFCF7FF
:105EF0008BFF080F400715D508AE201DFCF784FF67
:105F000003C62800FCF780FFB2A6C0CE06400F40B3
:105F100008A80CC8FF2109041940300039432A00A1
:105F2000FFF748FA0822002128000AF069FA201D2C
:105F3000FCF76AFF3C26000C8200324021000C3145
:105F400028000C30FCF73FF9201DFCF75DFF000C2A
:105F50008000064032000C2128000C300AF050FA74
:105F6000A14D03CD083D0F22D243024005999BA6C7
:105F7000C0CE16400F4000980199421A1204994869
:105F800010403043012202433B000CC5083D0298FB
:105F90000830FCF739FF019AA718009A019BD61A1E
:105FA000E624A400C0B2032804D004280DD0202881
:105FB00015D023E0082229002000FCF781FEB2B2B0
:105FC00039000598FCF77CFE13E008222900200028
:105FD000FCF776FEB1B23800FCF7BEFE09E00822FD
:105FE00029002000FCF76CFEB2B239000598FCF7DE
:105FF000D1FD082229002000FCF762FE03CD083DF8
:10600000A4A20CCA02400420104303C5083D082284
:1060100029002000FCF754FEA04C2000FCF7A8F952
:106020002100022202431000FCF7AEF9FBF788FCC6
:106030000298FCF7E9FE6A464803400F1071304DA4
:10604000812004996854042202990831681C049B39
:10605000C018FCF7B8F8069881000A980078014348
:1060600089B204982818401DFCF7F6F8039801211E
:10607000414004982818C171049C0834404E0822FD
:1060800031002819FCF79FF808340398002813D032
:106090000798FCF7B9FE000C80003C270740E01988
:1060A000202801DD2020071BBAB231000C3128194D
:1060B000FCF789F8BFB2E4194B4E0CCE083E78A02D
:1060C00003C81040194003C60A980078FFF798FDEE
:1060D00009484078212817D1A5490E68002E21D003
:1060E000694609790091E3B22A000A99C978B04754
:1060F00018E000BF301F0020181D002043010020C1
:10610000381D0020FFFF000022280BD199490E689E
:10611000002E07D0694609790091E3B22A000A9956
:10612000C978B04794480168002906D00398002830
:1061300001D0012000E0022088470398002814D0F5
:106140000A984078202801D0232802D1FBF73CFE92
:106150000BE00A99C978D52900D0C9216A4612797D
:106160000092E3B22A00FFF77BFD0BB0F0BD000008
:10617000FFFFFF00FFFFFFFFFFFFFFFF0000FFFF2C
:10618000F002002001080000901F002010B50C0054
:10619000207A052806D1DB20207008227749606824
:1061A000FCF711F8237A2278617860680AF0F4FA33
:1061B0003A48FCF7DDF801214008084009D0704C4E
:1061C0002161704A0023200000F00CFD200000F047
:1061D0006AFD10BDFFFFFFFFFFFF00FFFFFF000094
:1061E000FFFFFFFF0000FFFFF0110020F8B50027C0
:1061F000654C276165482060624A0023200000F05A
:10620000F1FC200000F06BFD5D4C2761604E2660C4
:10621000604D65635B4A0023200000F0E3FC200032
:1062200000F05DFD5C4C276126606563554A0023E4
:10623000200000F0D7FC200000F051FD0025574F52
:10624000574810301821694344182000FCF7DCFD42
:1062500022003940FFF7AEF86D1C042DF0DBF1BDD4
:1062600038B54C4D29706870AA704B4C01222261E0
:10627000C848206065639A40FA2080004243D317E3
:10628000200000F0AFFC200000F00DFD200000F029
:1062900089FD31BDF0FFFFFFFFFFFFFF0000002081
:1062A000FFFDFFFFFFFFFFFFFEB50600B74C3C48B8
:1062B000310018225143451828001030FCF7A4FD86
:1062C0002A001032150002000B00ADA003C81040D8
:1062D00019402A00FFF76EF800250120019068465A
:1062E000067033E06811800E40198011A649C20083
:1062F00089180CC9019980012F1A0800B840C117EC
:106300001040194021D100281FD130001030FCF777
:106310007BFD000EFF2813DA30001030FCF774FD0F
:1063200032001032944696A6C0CE0640020E521C91
:106330001206FF200006104030436246FFF73AF88D
:10634000A0B29249884200D12C006D1C14486946C5
:1063500009781822514346183000FCF755FD000E0D
:106360000A02104380B28542BCDBA0B2FEBD000031
:10637000081D0020101D0020001D002043010020EA
:10638000A01D002088130000581D00208D61000012
:106390002B5D0000181D0020E81D0020FFFEFFFF00
:1063A000301F0020F1B582B00025002900D0E4E0C4
:1063B0001400201DFCF728FD0F263040012859D17C
:1063C000201DFCF721FD0004000D10D06F46201D9C
:1063D000FCF71AFD03C76E48FCF716FD020068467D
:1063E00003C80004000D1104090D884242D1201D8C
:1063F000FCF70AFD000D304010D06F46201DFCF761
:1064000003FD03C76248FCF7FFFC0200684603C8AF
:10641000000D3040110D0E40B0422BD1201DFCF775
:10642000F3FC80235B040B400FD0201DFCF7ECFC39
:10643000000E0AD0201DFCF7E7FC06005448FCF7CC
:10644000E3FC320E000E824214D1201DFCF7DCFC6E
:10645000080E80070FD5201DFCF7D6FC09040AD0D2
:10646000201DFCF7D1FC0F004948FCF7CDFCBAB267
:1064700088B2824273D1201DFCF7C6FC080E40078B
:1064800012D5201DFCF7C0FC0802000E0CD0201D08
:10649000FCF7BAFC0F003E48FCF7B6FC3E02320E99
:1064A0000802000E82425AD1201DFCF7ADFC802369
:1064B0005B050B4010D0201DFCF7A6FC000E4ED053
:1064C000201DFCF7A1FC06003148FCF79DFC320EB4
:1064D000000E824249D10125201DFCF795FC080FD2
:1064E000800712D5201DFCF78FFC090437D0201D32
:1064F000FCF78AFC0F002648FCF786FCBAB288B28B
:10650000824232D1280002250543201DFCF77CFC85
:10651000080F400715D5201DFCF776FC0802000E79
:106520001DD0201DFCF770FC0F001948FCF76CFC17
:106530003E02320E0802000E824216D128000425C7
:106540000543201DFCF760FC0726080F30420CD0E5
:10655000201DFCF759FC080F0640AE4205D16846E5
:10656000007AFFF74DFB0020FEBD0B4C0CCC083C25
:10657000802080001043190003C40120FEBD0000EC
:10658000FFFFFF00FFFFFFFF301E0020FFFF0000A6
:10659000F0020020AD5D0000F0110020F2B58EB0D9
:1065A000002100270491F0260EA90978C92900D0FE
:1065B000CCE11C00150069460871182105A8FDF7FB
:1065C0009BFE684600790290142801D0232805D14B
:1065D0000822D349D348FBF7F6FD08270B956846F8
