:10000000007E002009AB010003A90100EF310000D0
:1000100000000000000000000000000000000000E0
:1000200000000000000000000000000027AA0100FE
:1000300000000000000000006FAA0100053200006F
:100040006F32000067330000B7330000B93300009F
:10005000E3330000F53300000734000025340000CE
:100060003134000071340000733400007B34000030
:10007000833400008B340000933400009B34000074
:10008000A3340000AB340000CD340000D5340000B0
:10009000DD340000E5340000ED340000F5340000EC
:1000A000FD3400000935000011350000193500004D
:1000B000253500002D3500003535000041350000A4
:1004100038B501F08FFA002001F0AAFCFA24A400FC
:100420004F4D04E001F015FD200001F033FD287868
:1004300069780906090C0843400A4007F2D10020F8
:1004400001F01DFE9622D2004648C079811E49B2B5
:1004500045480068454B5B6B984701F0B5FC0120AF
:1004600001F00DFE012001F083FC01F069FA31BDBD
:1004700080B53F4A01F03CFF02BD38B504000D00D5
:10048000FF2028702070AA2068706070A878A07083
:10049000E878E070E978091D2000FFF7E9FFEA78C5
:1004A000A2181071000AE978611848714020E978B3
:1004B0006118887131BD10B52E4801682E4C002995
:1004C00001D0200088472000083001F051FF41058D
:1004D000C90F0DD02248017842781206120C114340
:1004E00008220A430270120A4270012010F044F9F7
:1004F0002000083001F03CFF0200210008311F48B5
:10050000104001F041FF2000083001F031FF0200EF
:10051000210008311A48104001F036FF2000083051
:1005200001F026FF0200210008311648104001F0BA
:100530002BFF2000083001F01BFF020021000831D2
:100540001148104001F020FF2000083001F010FF9A
:10055000210008310D4A0240100001F015FF10BDC6
:10056000B400002010020020A0060020C0280020B7
:1005700001A0000030000020F0020020FFFDFFFF7E
:10058000FFF7FFFFFFFEFFFFFFFBFFFFFF0FFFFF78
:10059000F5B58BB00D0000206A46107000260021D2
:1005A000C9430A916946C8700B988078C206D20E7A
:1005B0001C2A09D0062D00DC33E1FF2D0EDC0B9A3E
:1005C000D278D21DAA4211D10B9A1278FF2A05D1F6
:1005D0000B9A5278AA2A01D1C00902D1012000F059
:1005E000F3FD0B984019401E0078402800D0DFE250
:1005F0000224691E0B98FFF73BFF002801D000F092
:10060000ECFE0B98007902900B98407901900298CB
:1006100001994018401EC049872292008A1807920B
:10062000D03104910B998978C906C90E491E012958
:100630001DD9891E00D18BE0491E73D0491E0329A4
:1006400018D9091F6CD0491E012913D9C91E11D010
:10065000891E00D186E00C390CD0491E00D184E0FF
:10066000491E012906D9891E00D188E097E05B2840
:1006700000D3E8E00B988078C106C90EC64A039201
:100680008009C00700D58CE0032909D002980C9995
:10069000087101980C9948710198801C0B99C870D9
:1006A000BE480B998978C906C90E012901D100F00D
:1006B000DBFD022901D100F0E4FD032901D100F0A6
:1006C0002DFE042901D100F011FE092901D100F00D
:1006D000E5FD0B2901D100F031FE0F2901D100F019
:1006E000EAFD1B2901D100F036FE1D2901D100F0E1
:1006F0003EFE1E2900D094E00C200B99C870C64C19
:10070000A1680C98001D01F0B1FD61680C980830DB
:1007100001F0ACFD21680C980C3001F0A7FDC0E0A1
:10072000742820E010281FD29C4DBC480078287106
:100730000498007DE87102F099F829000C3101F06D
:1007400023FE0798C07D28740798007E687491E79F
:10075000924908784A781206120C10438007800FDD
:10076000099087E7FF2885D36DE0AD480368002B2B
:1007700057D00C9A29000B98984700F074FEA94DA9
:100780000B98C078042805D10B98001D01F035FDA9
:1007900028606FE76048006F03218843F8E7032073
:1007A00007E25D4A10788F239B00D3180693019BC4
:1007B0009B1C0593FF239B1DD2180892CD4DCE4F55
:1007C000491E59D0491E00D1D9E0491E00D171E21D
:1007D000491E00D1E7E1491E01D100F0EDFB491EA1
:1007E00001D100F015FC491E012901D800F043FC9D
:1007F000891E00D118E1491E03D0491E00D107E22D
:10080000891E01D100F0CCFC891E00D176E10E39A1
:1008100001D100F003FD491E05D0491E01D100F0B1
:10082000EAFC00F01FFE0B98C07814280BD101F0F1
:1008300096F9002800D0D5E301210B98001D01F0A6
:100840002EF9002801D10420B3E114210B98001DDA
:1008500002F0AEFA01F083F9002801D100F079FC32
:100860004E4908784A781206120C1043802202433F
:100870000A70120A4A703BE10B98C07805998842C9
:1008800000D095E1380001F073FD062101252840D4
:10089000029802D00B281FD201E0032803D2684639
:1008A000017000F0A9FD0B2816D2380001F060FDA0
:1008B0003900284301F068FD380001F059FD0200BD
:1008C00039000C2082430420104301F05DFD042216
:1008D00039000B2002F0F2F90022BA490B98029C71
:1008E000019F04E0831D9B5CA6188B55521CBA42E5
:1008F000F8D30B902948017842781206120C114364
:10090000B04B1A004B32B048090A294206D04B219D
:10091000595C4143527804E000170020917841432C
:10092000D2784243A948826641660025A84EA54870
:1009300069004018513001F05BFC290171180886EC
:100940006D1C032DF3DD9F4D2800133001F055FC85
:1009500007990860102229001B31FD204000301843
:1009600001F031FC102229002B319A48301801F097
:100970002AFCBAB229191034200000F06EFC0B9842
:10098000C0780599884200D012E1002700229249E0
:100990000B98029C019E08E0F6170020B40000208E
:1009A000831D9B5CA5184B55521CB242F8D30B908B
:1009B0000D4628790007000F06994872280001F0BB
:1009C0001CFC0699C860681D01F012FC049908809F
:1009D000E879811E7E4832233A018218D154020000
:1009E000F6325170282281547F1C032FF4DDB2B2FD
:1009F00029198034200002F061F90020CD490968EE
:100A00008847CD4908784A781206120C10438007AF
:100A10006ED10FF031F86BE0740E10009B190020BE
:100A200014000020A0060020C4480278417809067E
:100A3000090C0A4301216B46120A012414409C70E0
:100A4000027843781B061B0C1A4368461206D20E26
:100A5000114041700B98C0780599884252D1002509
:100A60000B996846C4780298019A0AE08B1D5B5D79
:100A7000B24E4719F61937789F4200D001243370DF
:100A80006D1C9542F2D30B91AC4D92B22918802384
:100A90005B00C01802F012F94320295C002901D044
:100AA000481E00E0002003990870002C04D068461E
:100AB000417880780FF066FD9F4908784A781206E1
:100AC000120C1043400A400710D14220285C002835
:100AD0000CD0287869780906090C0843800BC007F8
:100AE00004D4BE48806B80470BF0AAFC11F0A6F935
:100AF000B5E300BFC0110020600000200B98C07853
:100B00000599884254D10298082851D300230B99A3
:100B10000A98029E019F0AE08A1DD25CB04CF5182B
:100B200064192578954201D0227018005B1CBB42E5
:100B3000F2D30B910028DBD4A94C2000083001F03F
:100B400017FCC105C90F0AD07B4908784A781206FC
:100B5000120C1043802202430A70120A4A70A14804
:100B6000A1490860A14D280001F002FC0200290003
:100B70000120104301F008FCBAB2A119A0208000A6
:100B8000301802F09BF82000083001F0F1FB04005F
:100B9000280001F0EDFB2900954A0240A0048023C3
:100BA0001B03184031E30B98C0780599884201D0A7
:100BB000052008E300240648F63003900B980299BC
:100BC00017E000BF4001002040420F00001B002042
:100BD000001700200A02000010020020564A851D5E
:100BE0002D5D961C0F19F55502D19278039B9A70D2
:100BF000641C019A944201D300F037FC0B19EDD02C
:100C0000012BEBD0082BE9D0092BE7D00B90CFE2DA
:100C100003250B98017903200840474E31787278FC
:100C20001206120C1143CF4A0A4010433070000ADA
:100C300070700B98C470307871780906090C0843FD
:100C40000127000A38421FD0684C200001F090FBB9
:100C500021000743380001F097FB317870780006D7
:100C6000000C0143604803220A40012A01D1BE4919
:100C700009E0317872781206120C114303220A40FF
:100C8000022A02D1B9490160E9E23178727812068C
:100C9000120C1143294206D1B5490160B54803C879
:100CA000B5490860DBE2200001F062FB210001226F
:100CB0009043ABE280200B99097901420AD01E4A89
:100CC000117853781B061B0C194308431070000A57
:100CD0005070C4E2184D287869780906090C084359
:100CE0000124000A204242D0287869780906090CBC
:100CF00008430B9909790323032707400B409F42C0
:100D00001ED1287869780906090C08438007800FEE
:100D1000022876D10498808C800572D4334F380035
:100D200001F026FB3900204301F02EFB8F482E49AD
:100D300051E000BFC01C0020B40000207002002061
:100D40008807800F032800D132E229786A781206DA
:100D5000120C1143834A0A4010432870000A68703D
:100D6000287869780906090C0843000A204248D00F
:100D70000498808CB9490140049881841B4F380045
:100D800001F0F6FA3900204301F0FEFA2A7868787B
:100D90000006000C02431448032103231340012BD7
:100DA00001D1714909E02A786B781B061B0C1A43A4
:100DB00003231340022B02D16C49016021E02A7801
:100DC0006B781B061B0C1A430A4213D16849016059
:100DD000684803C86849086013E000BFC0280020C5
:100DE000F0020020B70400001800002000000020DE
:100DF000FFFFF7FF380001F0BBFA3900A04301F014
:100E0000C3FA297868780006000C01430B98007932
:100E1000890801220A40810821408A420FD08108B6
:100E20000120084029786A781206120C1143AA4A58
:100E30000A40800010432870000A68700126297853
:100E400068780006000C01430B980079C90801225C
:100E50000A40C10821408A420FD0C1080120084041
:100E600029786A781206120C11439C4A0A40C00085
:100E700010432870000A68700126297868780006F7
:100E8000000C01430B980079090901220A4001096D
:100E900021408A421AD001090120084029786A7845
:100EA0001206120C11438E4A0A40000110432870AA
:100EB000000A6870287869780906090C0843010659
:100EC000090F012008400EF0ABFD01262978687853
:100ED0000006000C01430B980079490901220A40E1
:100EE000410921408A420FD0410901200840297858
:100EF0006A781206120C11437A4A0A4040011043E4
:100F00002870000A687001262A7868780006000CAC
:100F10000243754801785209224202D040220A4316
:100F200001E0BF220A400270297868780006000CB0
:100F300001430B980079890901220A408109214067
:100F40008A421BD081090120084029786A7812065C
:100F5000120C1143AF4A0A40800110432870000A66
:100F600068700DE0FCFF0000EDFB000039FB0000A5
:100F700079FA00001012002020000020002E05D079
:100F800002222900E320800001F098FE2878697889
:100F90000906090C08438008204209D0287869789E
:100FA0000906090C08438009204201D0012000E015
:100FB00000200EF03DFC52E10B99C97800292AD19E
:100FC00095490A784B781B061B0C1A43520A5207A4
:100FD00068D10A784B781B061B0C1A430124110AAE
:100FE000214201D00A20EEE0012805D0412803D09B
:100FF000022801D0422809D106F062FB2A001032F3
:101000000CCA99421BDB01DC904218D3B04828E09F
:101010000B99C978002900D0CAE0012805D04128E1
:1010200003D0022801D042280BD106F049FB2A0048
:1010300010320CCA994204DC01DB904201D211202B
:10104000C1E0754908784A781206120C1043012451
:10105000C008204204D19E4803E000BFFCF9000014
:101060009C489D4908609D4D280001F081F92900A8
:1010700004432000CAE00B98C0780624F32858DA0D
:101080000B990979DF2954DCF12852DA934E3000AC
:1010900001F06EF90125800C284003D19048C0680A
:1010A0008047002800D08DE0039880780E490978A9
:1010B0008C4A127812092A4233D0012905D04129DD
:1010C00003D0022901D0422910D10B99C9780328F5
:1010D0002DDB30D0DF292BE0FBFF0000F7FF000005
:1010E000EFFF0000DFFF000000170020832927D159
:1010F00001281EDD022803D10B98C0780C2817E0C8
:10110000032803D10B98C078372815E0042803D1B1
:101110000B98C0787F280FE012DD0B98C078F32879
:1011200006E083290CD10B99C978032802DA342907
:1011300006DD52E102D1752902DB4EE1DF29FCDC3C
:10114000354908784A781206120C1043000A2842E2
:1011500001D10B2037E00B98C078421E03988273B0
:10116000D2B20B98411D089801F02DF80B98007928
:10117000039908730B988078C106C90E072902D11C
:1011800003994D7304E0082902D1002003994873A4
:10119000554851490860300001F0EAF8310027E075
:1011A0000B98C078F12803DA0B980079DF2801D07A
:1011B000062008E0494C200001F0DAF80125800CF7
:1011C000284003D007206946087015E10B98C078C5
:1011D000421E03988273D2B20B98411D089800F00A
:1011E000F2FFC3483C490860200001F0C1F821002B
:1011F000054328000AE0BF4837490860374C200003
:1012000001F0B6F8020021000120104301F0BCF803
:1012100025E000BFBFFF0000B40000200B9800795C
:1012200002280ED1380001F0A3F8020039000C208A
:1012300082430820104301F0A7F8042239000B2054
:101240000BE0032800D00DE10B98401D00F0D0FF0B
:101250000B99CA79C92A02D2091D01F02FFD01207C
:101260000B99C870002073E00024A34B0C980299DE
:10127000019A861D944248D20D195D5D3555641C56
:10128000F8E700249D4B0C980299019A861D944220
:101290003BD20D195D5D3555641CF8E70024984B71
:1012A0000C980299019A861D94422ED20D195D5D0B
:1012B0003555641CF8E70024924B0C980299019A6A
:1012C000861D944221D20D195D5D3555641CF8E7E9
:1012D000BD260100D1F5000018000020000000200C
:1012E000C0280020BD020020D9F8000001F0BEFA9D
:1012F000854C21000C3101F047F803988078A070EC
:1013000000230C980299019A934200D3EEE0A51CA9
:10131000CE18AD5D861DF5545B1CF5E70B99CC70BE
:10132000017842781206120C11430C9A117101785F
:1013300042781206120C1143080A15E001210B9A9B
:10134000D170017842781206120C11438807800F81
:101350000C99087150E00B98C4700498808C0C991B
:1013600008710498808C000A0C99487144E00B982D
:101370000079012601281CD10B98401D00F03DFF8B
:1013800007000B98C5790624C92D26D22A000C998E
:101390000831380001F055FC00281ED10C98067168
:1013A0000C994D7239000C98401D00F05FFF6D1DC7
:1013B00020E0032856D10B98401D00F019FF0700CC
:1013C0000B98C5790624C92D07D22A000C9908313B
:1013D000380001F047FC002802D0684604700BE09A
:1013E0000C9806710C99CD7139000C98401D00F0D5
:1013F00033FF2D1D0B98C5700B9880784006400E6A
:101400000B9988705F210140432906D169466A46DD
:101410001278099B9B0113430B7020216A461278B6
:10142000002A13D001200B9AD0700B9880786A465E
:101430001278920602D0DF21014000E001430B98B0
:101440008170684600780C99087102E001430B989E
:1014500081700B990C98FFF710F80B98C078C01D9D
:1014600080B200E000200DB0F0BD0B90264CA07AB9
:10147000E17A0906090C08430125284201D00699A2
:101480000D70A07AE17A0906090C08434008284249
:1014900001D007998D77A07AE17A0906090C0843F3
:1014A000800828420AD016483521415C069A5177B7
:1014B0003421405C069908770799CD77A07AE17AC4
:1014C0000906090C08430DD010494D731048114905
:1014D0000860114E300000F04BFF3100054328003A
:1014E00000F052FF0020A072E072B8E60C9083E793
:1014F0006DF80000110400004001002010020020DF
:1015000070020020F0020020B4000020F617002036
:10151000B1F900001800002000000020F1B588B0EB
:1015200001ACA078DF210140A1700120E070694684
:10153000A378E0251D400D702B4610251D434D73EB
:101540006B461B7811251D430D736B461B783225A6
:101550001D43CD70097813230B43A24DA7218900A9
:10156000691802916946029E7679B61C8E709E4E6D
:10157000AE5D4E70029909689C4EAE1904969C4E61
:10158000AE1905969B4EAD190695002608AD2D782F
:101590006D1E00D154E1AD1E00D144E1ED1E1FD0FF
:1015A000AD1E012D2ED9AD1E3BD0ED1F00D141E166
:1015B000AD1E00D14CE16D1E00D1C6E06D1E012DA7
:1015C00000D820E1ED1E00D128E16D1E1FD06D1E58
:1015D00024D06D1E00D111E12D1F00D12DE1A0E11D
:1015E000854B19785D782D062D0C2943C9080142D9
:1015F000F5D06846407BA0701671A0782021014389
:10160000A17081E16846407BA07011201EE1684610
:10161000007833210143A170172017E1A37018202F
:1016200014E14B0604D56846007BA07012200DE142
:101630006B466D462D7831272F431F708B060CD5D6
:10164000029B5B79002B08D1A7701671029909687B
:10165000490501D522211171A8E0624B634D5B1948
:101660000493654B8D0706D11D785F783F063F0CCC
:101670003D43AD073ED1059D029F3F79ED5DC93DDC
:10168000ADD00C3D012DAAD9ED1EA8D06D462D7808
:10169000A5706D46AD78E5701D785F783F063F0C0C
:1016A0003D436D0B054205D0490501D5212106E0DA
:1016B000142104E0490501D5202100E01321117116
:1016C000994D05992F79C95D517106E004992F79DB
:1016D000BF19C95D971DB955761C69798E42F5DB36
:1016E00092490D784E783606360C35436D0A054220
:1016F0006DD065E0C90300D413E10299497900294E
:1017000030D006990978202901D1162102E0042958
:1017100001DC41311171844D05992F79C95D5171F9
:1017200006E004992F79BF19C95D971DB955761C3C
:1017300069798E42F5DB7D490D784E783606360C98
:1017400035436D0A054242D03AE0029989790B008F
:10175000C92B03D1029DED79812D0ED0C93901D05D
:101760000C39012900D8DCE0C91E74D0DC2B72D002
:10177000D72B02D0DB2B00D0D3E069460978352384
:101780000B43A37068494B795B1CE37020231371F2
:101790008B795371012306E0049D0E79F618AD5D37
:1017A000561DF5545B1C4D79AB42F5DB5F490B7858
:1017B0004D782D062D0C2B435B0A034207D00E4BB0
:1017C0005B79151DE678AB55E3785B1CE3700B780D
:1017D0004D782D062D0C2B43990A014200D08BE049
:1017E00092E000BF00170020E2030000A202000008
:1017F000A102000099020000B40000206846007BAE
:10180000A0700C2022E06846C078A07008A800787C
:10181000162801D1312019E0322017E06846C0783F
:10182000A070332012E068464078000679D5A37096
:1018300019200BE0A3701B2008E0A3701C2005E01A
:101840006846407800066CD5A3701A2010715BE0E2
:10185000029B5B79002B64D0059B029D2D795B5D1B
:10186000C93B5ED00C3B012B5BD9DB1E59D06B46CC
:101870001B7834251D43A5706B469B78E3704905A2
:1018800001D5232100E01521117102990968C903CE
:1018900009D506990978202901D1162102E00429E9
:1018A00001DC413111712049059B0D795B5D53715C
:1018B00006E0049B0D79AD195B5D951DAB55761C5B
:1018C0004B799E42F5DB19490B784D782D062D0C8E
:1018D0002B435B0A034207D0154B5B79151DE67855
:1018E000AB55E3785B1CE3700B784D782D062D0C1F
:1018F0002B43990A014207D00D488079111DE378E6
:10190000C854E078401CE070A0784006400E4021AA
:101910000143A17001A91000FEF7AFFDE078C01DE2
:1019200000E0002009B0F0BD9C19002070020020EA
:10193000B400002072B6A1480168491C01607047DC
:101940009E480168002901DD491E016000680028E9
:1019500000D162B67047F8B500248F4D28786978B9
:101960000906090C08438007800F022802D10EF0F7
:1019700063FA04000EF00EFA002800D001240EF0E5
:10198000D3FA002800D00124844F0CCF083F844EA6
:101990001004400EC0070AD5B068012802DD401EC1
:1019A000B06004E07FA003C81040194003C770680E
:1019B00001280BD1287869780906090C08437B496E
:1019C00001402970090A6970002008E0002808D148
:1019D0007B4800F0CDFC4103C90F07D001200AF07D
:1019E00042F97068012801DD401E70602000F2BDE0
:1019F000F8B56F4F6F4E70484068002813D072B62C
:101A00006E480168491C01606E4A30CA083AB07AD3
:101A1000002813D03000103001F0F4F98D4219DBAA
:101A200001DC844216D33000103001F0EBF903C71B
:101A30000020B072FFF784FF0020F2BD03CF083F03
:101A40008D4202DBF6DC8442F4D203CF0023801DFA
:101A5000594103C2FFF774FF0120F2BD78B50B2A8C
:101A600006D1531E02001C03641C0023564812E0DA
:101A70000C2A01D1931EF5E7012072BD280007E072
:101A8000D55C684008264508C007F7D520006840A7
:101A9000761EF8D15B1C8B42F2D380B272BDF8B5D2
:101AA00086B004000D0000F0D4F9002D04D11421FB
:101AB000200001F08EF905E01422210001A800F0B9
:101AC00082FB01AC0025E07B4008404E06E0002D83
:101AD00042D10125009980200843C0B2002162183C
:101AE00013785B1A03E00F29F9D1621813781B1AD7
:101AF0001370491C1229F6DD00902078FF28E6D1EA
:101B00006078AA28E3D1A07C4028E0D1A07AE178CF
:101B10008842DCD10B2210212000FFF79FFF070035
:101B20002000103000F064FB8742D0D1B768201D40
:101B300000F063FB8742CAD177682000083000F0CC
:101B40005CFB8742C3D1376820000C3000F055FBA6
:101B50008742BCD1012000E0002007B0F0BD30B5C5
:101B600085B000216846FFF79AFF0500184C200059
:101B700000F0FEFB020021000220824368000223E5
:101B80001840104300F000FC200000F0F1FB81073A
:101B9000C80F05B030BD0000B4000020F0110020D7
:101BA000001B0020FFFDFFFFFFFFFFFFFFF1000014
:101BB00010120020C8000020281200203800002049
:101BC0000000002020120020FFFF0000740E100013
:101BD0006000002001228A40D14300E00021000281
:101BE0002D4A801841610020704700022A494018A0
:101BF000C1688022D20056E010B50002264A801843
:101C00000A78C368344C1C401203C0239B01134064
:101C10002343C3604A78C3682E4C1C405202802381
:101C20009B001A402243C2608A78C3682B4C1C4038
:101C3000120280235B001A402243C260CA78C36844
:101C40007024A343120114401C43C4600A79C36882
:101C50000824A343D20022401A43C2604A79C368D1
:101C60000424A343920022401A43C2608979C268C7
:101C700002239A4349001940114333E00EE016E075
:101C80001EE00002194A80180268120C12040A436E
:101C90000260002070470000000C00400002134961
:101CA0004018C16801220A43C26000207047000248
:101CB0000E494018C16801229143C160002070475D
:101CC00000020A4A80184268120C12040A43426059
:101CD00000207047FFFDFFFFFFCFFFFFFFFEFFFF6C
:101CE00011401943C160002010BD0000000C0040ED
:101CF0000A43C2600020704700021B494018C168B7
:101D00000122F5E718B585B01421684601F03CFAC8
:101D10000121082001F0DEF90020694608704871B1
:101D20000322CA7001228A71087188704870FFF717
:101D300063FF0E4C21000020FFF7A3FF21000020CD
:101D4000FFF79EFF00210020FFF744FF0020FFF770
:101D50004CFF012203210E2001F020FA0020FFF7A2
:101D6000CBFF06B010BD0000000C0040D4FE000008
:101D700080B5002802D1FFF782FF01BD0020FFF7E8
:101D80007DFF01BD10B53B4A13680F24A34309072B
:101D9000090F19431160116820239943400118402D
:101DA00008431060002010BD34484078002800D15E
:101DB000704780B50C210020FFF7E4FF2E481E215C
:101DC0000160E121016001BD38B584B02B48407845
:101DD000002801D105B030BD00F048FD284C21009D
:101DE0000C3100F0D1FA9625AD0004226946280096
:101DF00000F038FF20000C3000F0BAFA0099814260
:101E00001ED220000C3000F0B3FA0099401A009066
:101E10001C49884214D320000C3000F0A9FA0100BC
:101E200001A800F023FA01AC17480168201D00F05A
:101E30001DFA01202072092201A9280000F03EFFAE
:101E4000BFF34F8F114812490860BFF34F8F00BF97
:101E5000FDE70A484078002800D1704780B5FFF7B9
:101E600069FD05481E210160E1210160FFF768FD61
:101E700001BD0000840F0040800F0040F0030020EF
:101E8000B4000020704301002C1900200400FA0562
:101E90000CED00E012E000BF00BF00BF00BF00BFBC
:101EA00000BF00BF00BF00BF00BF00BF00BF00BF3A
:101EB00000BF00BF00BF00BF00BF401E0028EAD126
:101EC0007047000080B5DBE080B500220B219C4804
:101ED00001F029FC002201219A48D6E080B501F0EA
:101EE0007BFC01BD38B501211C2001F0F3F8944DB5
:101EF00004220B21280001F0E5FB924C0422012171
:101F0000200001F0DFFB00220B21280001F00BFC78
:101F100000220121200001F006FC403C04220721A0
:101F2000200001F0CFFB01220721200001F0FBFB84
:101F300031BD38B501211C2001F0CCF800F05AF871
:101F4000814D02220421280001F0BCFB0222022163
:101F5000280001F0B7FB7B4C02220B21200001F08E
:101F6000B1FB02220521280001F0ACFB0222002176
:101F7000200001F0A7FB02220621280001F0A2FBAD
:101F800002220721200001F09DFB022206212000F1
:101F900001F098FB04220B21694801F093FB042215
:101FA0000121200001F08EFB02220021200001F01F
:101FB00089FB02220B21200001F084FB02220C216C
:101FC000280001F07FFB02220B21280001F07AFBA0
:101FD000FFF73FFF01220221012001F0DFF801227B
:101FE0000221022001F0DAF801220221032001F08F
:101FF000D5F831BD38B501211C2001F06BF8524CE9
:1020000002220F21200001F05DFB4D4D0422012131
:10201000280001F057FB01220121280001F083FB79
:1020200001220821200001F04DFB09220821200097
:1020300001F092FB403404220521200001F042FB14
:1020400002220421200001F03DFB04220321200094
:1020500001F038FB01220321200001F023FB0122C3
:102060000421200001F01EFB01220521200001F0C7
:1020700019FB01220221002001F090F831BD80B54A
:10208000020000D0012207212F4801F04CFB01BDC6
:1020900080B5FFF789FE002000F0DCFF0121002061
:1020A00000F0C6FE002000F046FF0021012000F0F5
:1020B000BFFE0021022000F0BBFE0121032000F042
:1020C000B7FE0021042000F0B3FE002000F0E0FF86
:1020D000002000F0EFFF01F037FAFFF765FE01BDC9
:1020E0001A481B4908601B481B49086000201B490F
:1020F00008601B491B4A11601B4908601B491C4AA8
:1021000011601C490860704710B5FFF712FF962454
:10211000A40119488078002802D0200001F03CFC7E
:10212000200001F0C2FD01F060FE01F08DFF02F021
:1021300012F8FFF7E7FD00F039FAFFF7D1FF10BD05
:10214000401C0240400C0240000C0240B54300001D
:1021500034110020B7430000381100203C1100204A
:102160000D4400004411002048110020614500008A
:102170004C11002014000020F003002010B50300D3
:102180001000002202E01C5D0019521C94B28C4227
:10219000F9D380B210BD00B56F4908686F4A50434B
:1021A0006F4A801808606F4902F058F8080000BDB7
:1021B00038B504000D00FFF7EEFF291B491C02F0A3
:1021C00043F8081932BD10B5674B03E00C78047072
:1021D000491C401C1400E2182404F7D110BD0B0068
:1021E000110000D1704780B51A0002F03DF801BD22
:1021F0000178407800020843704701784278120263
:102200000A43817809041143C078000608437047E7
:1022100030B50178427814020C43827812042243CC
:10222000C47824061443037922004479250214005B
:102230001D43827913042B43C07901062000194302
:1022400030BDC178827812020A43417809041143F3
:1022500000780006084370470170090A4170704712
:1022600001700A0A4270090C8170704701700A0AF5
:1022700042700A0C8270090EC170704710B50400DC
:1022800022701004000E6070100CA070100EE07030
:102290002371180A6071180CA0711A0EE27110BD3A
:1022A00081700A0A4270090C01707047C1700A0AF5
:1022B00082700A0C4270090E0170704738B5020036
:1022C0000B00FF21002A12D000240DE0010008E0DD
:1022D000105D4840C1B2082548000906F6D587219F
:1022E00041406D1EF8D1641C9C42F1D3C8B232BD8E
:1022F00078B5030000241C480CE0280007E01D5DB1
:10230000684008264508C007F7D528005040761ECB
:10231000F8D1641C8C42F2D380B272BD78B5030050
:102320000C00002500210EE0010009E0585D0002CC
:1023300048400100082648000904F5D51100414035
:10234000761EF8D16D1CA542F0D388B272BD80B55F
:10235000064AFFF7E3FF02BDF02700206D4EC6419D
:1023600039300000FFFFFF7FFFFF00002110000059
:10237000C37882784178007842EA032240EA01205B
:1023800040EA0240704700000870020A4A70120AD0
:102390008A70120ACA70704780B5020007216B4824
:1023A0004DE001206A490A6802430A600A6852083F
:1023B0000240FBD00A6882430A600A685208024061
:1023C000FBD1704710B561490A68754B134002781C
:1023D00092030C0C22401A430A600278002A08D1AA
:1023E0000A6807239A4380784007400F104308602B
:1023F0000FE0012A0DD14078402801DB042010BDF8
:102400000A68684B13400002FC22920102401A4302
:102410000A60002010BD38B505004D4C0022032194
:10242000200000F07BFE00220421200000F076FE58
:102430002A000621200000F071FE31BD5A4800F04C
:102440006DFE01BD30B502000120FF24A41CA24294
:1024500010DA714B1C68714D2540C903C40321403B
:10246000294319601968490A4902D205D20D0A4365
:102470001A6030BD042030BD10B5FA239B00012145
:10248000464A1468E4090C400ED054680C4354606A
:102490001C00631E002C03D0546864080C40F7D065
:1024A000002B01D1092010BD93680370D3684370DD
:1024B0001368DB080B40136901D1DB06DB0E837068
:1024C000936903715369C370D3694371136A83714C
:1024D0005068884350601068C009084003D05068B5
:1024E00040080840FBD1002010BD30B5FA239B0006
:1024F0000121164A1468E4090C400AD054680C43C0
:1025000054609B4C1B191D041ED055686D080D406E
:10251000F8D0037893604378D360837813610379AC
:1025200093614379D36183791362C07850615068B5
:10253000884350601068C009084003D050684008C4
:102540000840FBD1002030BD092030BD0014004000
:102550000414004038B504000020FFF71DFF207868
:102560000E4D296808229143C0001040084328609E
:10257000601CFFF727FF20796968C84A0A400002FB
:10258000E021C9000140114369606179E088FFF7EB
:1025900059FF20000830FFF7A8FF31BD00140040AC
:1025A000FFBFFFFFFFC0FFFF04140040F8B5BC48A9
:1025B000BC4908600121142000F08CFD012069460F
:1025C000087000220A714870887055220A7205222C
:1025D0004A7209228A7216230B730323CB724A7341
:1025E00020228A734871FF20C8806846FFF7B2FF37
:1025F0000020FFF710FF00220321AB4800F08EFD02
:1026000000220321172000F0C9FD0120FFF7C4FEBE
:10261000FFF7C7FE05B000BD30140040FF7FFFFF8D
:10262000F0B585B005000C0001A800BFA5A11022DF
:1026300001F05EFEE12636019C48072140567043BA
:10264000281800909A4F390001F004FE451C0098AC
:10265000390001F003FE0F003800310001F0FAFDEF
:1026600020713800310001F0F9FD0E0030003C21EE
:1026700001F0F0FD607130003C2101F0EFFDA1712F
:102680008C48207007206070FF206E300300267891
:1026900061780906090C0E430321421C0E4202D147
:1026A000130000E00300AB4213D2ED1A23786678E2
:1026B0003606360C33435B1C23701B0A6370237889
:1026C00066783606360C33430B42EBD1E8E7A1704F
:1026D00011E0237862781206120C134301AA0B4210
:1026E00001D11D2191700121535CAB42EFD2ED1A53
:1026F000491C0D29F8D3E57005B0F0BD18B587B0B9
:102700000400684673A11C2201F0F2FD2078617874
:102710000906090C0843217862781206120C11434D
:10272000FF226E324243880810186946A278520090
:10273000895A4018E17840185F494018217862783A
:102740001206120C1143890703D1A178032900D284
:10275000401E574948432179E12212015143401854
:1027600061793C2251434018A179401808B010BD4E
:10277000FFFF0000D0B50600642101F065FDCCB27A
:102780003000642101F05CFD060220000A2101F006
:1027900057FD0701374320000A2101F055FD0800CD
:1027A000384380B2D0BD3EB504006D46E078FFF7F7
:1027B000E1FF2871207861780906090C08433F4938
:1027C00088420ADB207861780906090C0843FA215F
:1027D000C900401A2070000A6070207861780906EC
:1027E000090C0843C0B2FFF7C5FFA871A078FFF736
:1027F000C1FF68712079FFF7BDFFA8706079FFF70E
:10280000B9FF6870A079FFF7B5FF28706846FFF739
:102810006CFE37BD01090A2251430007000F08185A
:10282000C0B270473EB504006846FFF725FE6D460E
:102830002879FFF7EFFFE070A879FFF7EBFFFA21A7
:10284000C90040182070000A60706879FFF7E2FF45
:10285000A070A878FFF7DEFF20716878FFF7DAFF35
:1028600060712878FFF7D6FFA07137BDF8B56846CC
:10287000FFF7D8FF6846FFF741FF05B000BDF8B588
:10288000694604E07047F8B569460D4A8018FFF7BD
:10289000C7FE6846FFF787FF05B000BDFFF8FFFFE2
:1028A000614500004C11002004140040A0000020ED
:1028B00080510100B20700004905F5FFD107000073
:1028C0006F3DD512001F1C1F1E1F1E1F1F1E1F1E27
:1028D0001F000000000000001F003B005A007800AD
:1028E0009700B500D400F300110130014E01000043
:1028F00010B5AE4C21000831FB208002FFF744FDEB
:1029000021000C31FA208002FFF73EFD210010313A
:10291000F4208002FFF738FD21001431F2208002FC
:10292000FFF732FDA248A349086010BD10B5A24BC5
:1029300004E00478401C0C70491CD2181404F8D12F
:10294000012010BDF1B582B0800537D10E000027FF
:10295000029801F07FFB002830D134000025029E50
:1029600060190278417809021143827812040A43FF
:10297000C07801061143701901F078FB002804D1DA
:102980002D1D8020C0008542EADB02962600B44C53
:102990008025ED002A0021000298FFF7C7FF0020E4
:1029A000E15DF2191378994202D1401CA842FAD392
:1029B000A84205D07F1C032FCAD304E00020FEBD2F
:1029C000012069460870032F02D300206946087071
:1029D00068460078FEBDF8B50500B648054234D11A
:1029E0000091084031D1B44C8027FF003A0021000B
:1029F0002800FFF79BFFBE1E00223100A01CFFF73E
:102A0000BDFB2178C2B2914204D161780004000E6E
:102A1000814218D0002D18D03A0021000098FFF70D
:102A200085FF00223100A01CFFF7A8FB2178C2B26D
:102A300091420AD161780004000E814205D1210043
:102A40002800FFF77FFF0020F2BD0120F2BDF8B59E
:102A500006000F0014001D00FFF7FBF9FEF76AFFE8
:102A600039003000FFF7B7FF060009D106980021B2
:102A7000914A03E06318D35C6B54491C8142F9DB33
:102A8000FEF75EFFFFF7E5F93000F2BDFBB582B05F
:102A900015000A9F0126FFF7DCF9FEF74BFF0399AB
:102AA0000298FFF798FF0021834C009504980AE0F4
:102AB000009A5218A218037815789D4200D000267B
:102AC0001370401C491CB942F2DB002E16D10022C3
:102AD000B349A01CFFF752FB2070000A6070210070
:102AE0000298FFF72FFF0398002807D02F4840795E
:102AF000002803D021000398FFF724FFFEF720FFF2
:102B0000FFF7A7F9002005B0F0BDF8B584B01400B8
:102B1000684D2A000240860AB602471A01D578425B
:102B200000E03800002901D005402ED12700002404
:102B3000022A00D2022203911D00029007E08020A9
:102B4000C000361824180222684680883F18A8B2B0
:102B500000281BD010188021C9008842684602D97D
:102B6000891A818000E0858080882D1A03980028CA
:102B700001D00298341A6846808800903B002100FA
:102B80003000FFF783FF0028D9D0012005B0F0BD49
:102B900010B51300834A8218834CA24201D301204E
:102BA00010BD0A000021FFF7B0FF10BDF0030020A8
:102BB0000197010098060020FFFF0000F8B584B0DF
:102BC00014003C4D2A000240860AB602471A01D57D
:102BD000784200E03800002901D005402ED12700BE
:102BE0000024022A00D2022203911D00029007E075
:102BF0008020C000361824180222684680883F18BA
:102C0000A8B200281BD010188021C900884268464D
:102C100002D9891A818000E0858080882D1A039866
:102C2000002801D00298341A6846808800903B0042
:102C300021003000FFF70BFF0028D9D0012005B09C
:102C4000F0BD10B51300574A8218574CA24201D369
:102C5000012010BD0A000021FFF7B0FF10BD0000E9
:102C6000000C0020F1B50D001400504E30000C3067
:102C7000FFF77EFB002802D1FA27BF0204E03000F4
:102C80000C30FFF775FB070030000830FFF770FBD2
:102C9000002802D1FB20800203E030000830FFF75B
:102CA00067FB23002A00009C39190019FFF786FFF3
:102CB000F2BD0000FF03000000080020F1B50D0088
:102CC00014003A4E30000C30FFF752FB002802D1BE
:102CD000FA27BF0204E030000C30FFF749FB070081
:102CE00030000830FFF744FB002802D1FB208002AF
:102CF00003E030000830FFF73BFB23002A00009C74
:102D000039190019FFF701FFF2BDF8B504000D00F5
:102D1000264F38001430FFF72BFB002802D1F22693
:102D2000B60204E038001430FFF722FB060038003A
:102D30001030FFF71DFB002802D1F420800203E0D1
:102D400038001030FFF714FB2B0022003100FFF792
:102D500035FFF2BDF8B504000D00144F38001430F3
:102D6000FFF706FB002802D1F226B60204E0380085
:102D70001430FFF7FDFA060038001030FFF7F8FABC
:102D8000002802D1F420800203E038001030FFF761
:102D9000EFFA2B0022003100FFF7B7FEF2BD000072
:102DA000FE0300000000FEFF01F80100F003002018
:102DB00038B504000D00FEF7BDFD2B002200FE21FA
:102DC0008902FF208002FFF7A0FE002800D011E05A
:102DD00014E038B504000D00FEF7ACFD2B00220016
:102DE000FE218902FF208002FFF7E8FE002800D0C4
:102DF00000E003E0FEF7A4FD012032BDFEF7A0FDD8
:102E0000002032BDC37982791B021A434379120430
:102E100001791B021943C378114382781B021A43BC
:102E20004378120400781B021A43104370470000D5
:102E3000FEB50C0000216A4611707B4D7B49A960EC
:102E40007B49A9600127210000D00124296A019152
:102E500026003A070121C943002806D0022824D0C1
:102E60000ED3042844D02DD35DE0286801400E43E2
:102E70002E60002C5AD0E868C00A384056D1FAE7D4
:102E8000286A02432A627048016803220A430260EA
:102E9000286802218843710001432960002C45D035
:102EA00028698009384041D1FAE72868042188431D
:102EB000B10001432960002C38D06869000B38400C
:102EC00034D1FAE7286A02432A6260480168C022C6
:102ED00012020A430260286808218843F100014376
:102EE0002960002C22D0A869800938401ED1FAE759
:102EF000286A574A02403004104328625C4802683E
:102F0000114031430160C820FEF7C4FF286810213A
:102F10008843310101432960002C07D0E86B800C05
:102F2000384003D1FAE70420694608700198286206
:102F300068460078FEBD80B53B493C4A8A603C4A01
:102F40008A600A68E0239A434001034013430B6000
:102F500000F042FC002002BDF8B5002045490A8877
:102F60004B888C88CD886E46098C31802E490E683E
:102F7000464F3606760F06D0022E20D01DD3042EE3
:102F800029D026D34BE0C8683840904201D146484A
:102F900045E0C8683840984201D144483FE0C868DD
:102FA0003840A04201D1424839E0C8680740AF42EA
:102FB00001D1464833E0464831E054482FE06846A6
:102FC00000884A699205920D904202D19620000233
:102FD00025E0C80B23E0C86B8007800F032819D1B8
:102FE000C8683840824201D12F4814E0C868384090
:102FF000834201D12D480EE0C8683840844201D197
:103000002B4808E0C8680740BD4201D12F4802E0C4
:103010002F4800E03D48CA6BD205120F50430968A3
:103020004905490FC840F2BD002000405A5A00002F
:10303000A5A5000080B5FFF78FFF41490968C904C5
:10304000890FC84002BD00004C1D02408C0D02409B
:10305000FFFFFEFF07494000085A3C490A68D20AB0
:10306000D2024005400D1043086000207047000068
:1030700000240040000C100039494000085A39492A
:103080000A68920A92028005800DECE7FF070000B3
:103090002B49354A8A60354A8A600A68344B1340A6
:1030A0000002E022D20034E000366E014086510179
:1030B0000024F40022492C4A8A602C4A8A600A685B
:1030C0002C4B1340C002C022520122E000127A00B1
:1030D00000093D0070B50C00810610D5DF260640C2
:1030E000254D22003100280000F018F82348032E57
:1030F00001D1047008E002780321280002E02200D8
:1031000001001F4800F00AF8002070BD0048E801E7
:10311000120102401A430A600020704781B0012367
:103120008B40012A016802D10B43036001E09943FF
:10313000016001B070470268CA40D007C00F7047F5
:10314000002000400F4903E0000000000C20004078
:103150000A6882430A600A681043086070470000EA
:10316000000C1000142000405A5A0000A5A50000D1
:10317000FFF8FFFFFFE7FFFF242000409010002032
:103180002020004028200040002800D1704780B552
:10319000002901D017F0FEFD01BD000078B5012324
:1031A000C406E40EA3409E4C2360C40018252540AD
:1031B000FF26AE40F4438907090EA940050007D554
:1031C000A84D0007000F083880088000281803E089
:1031D000A548AD08AD00401905682C4021430160A9
:1031E000012A01D1A14800E0B548036071BD81B05A
:1031F000B4480068002803D1009000980028FCD053
:1032000001B0704780B5AFF3008001BD70B5060016
:103210000125B540AC4C20000830FFF7A9F8284044
:1032200024D1201DFFF7A4F8211D2843FFF7ACF897
:1032300020000830FFF79CF8210008312843FFF7F1
:10324000A3F8300001F098F8201DFFF791F8EE4345
:10325000211D3040FFF798F820000830FFF788F86C
:103260002100083106403000FFF78EF870BD80B5B0
:1032700094480068002869D100F0FBF9410704D5A3
:103280000220FFF7C3FF02215DE0C10604D5012043
:10329000FFF7BCFF042156E0810604D50420FFF7A8
:1032A000B5FF05214FE0410604D50620FFF7AEFF2C
:1032B000062148E0010604D50920FFF7A7FF0721F2
:1032C00041E0C10506D5AF480068002800D080471E
:1032D000082138E0810504D51120FFF797FF092167
:1032E00031E041050BD5A848FFF742F8C00704D4E8
:1032F000A6480068002800D080470A212FE0010579
:1033000004D50E20FFF782FF0B211CE0C10404D579
:103310000F20FFF77BFF0C2115E0810404D513205B
:10332000FFF774FF0D210EE0410404D51420FFF7D0
:103330006DFF0E2107E0000408D5954800680028BD
:1033400000D080470F21002000F097F90B210020CA
:1033500000F093F90721002000F08FF906210020EA
:1033600000F08BF901BD8B480068002800D0704741
:1033700080B5402000F07DF9C10704D5052000F09C
:10338000FBFF002113E0410604D5082000F0F4FF04
:1033900006210CE0010604D5072000F0EDFF07210F
:1033A00005E0000506D5032000F0E6FF0B214020D4
:1033B00000F063F901BD704776480068002800D02E
:1033C000704710B582246401200000F052F9000516
:1033D00006D50A2000F0D0FF0B21200000F04DF9A7
:1033E00010BD6C480068002800D0704780B5AFF36E
:1033F000008001BD67480068002800D0704780B594
:10340000AFF3008001BD2F480068002800D070474E
:1034100080B561480068002800D0804701BD0000E9
:1034200080E200E080B5AFF30080AFF3008001BD23
:1034300024480068002800D0704710B5574C002180
:10344000200000F095FB00280AD00021200000F0A9
:1034500094FB53480168002902D02068C0B2884715
:1034600010BD00001CED00E000E400E000E100E021
:10347000704780B5AFF3008001BD80B5AFF3008029
:1034800001BD80B5AFF3008001BD80B5AFF3008012
:1034900001BD80B504F0D6FA01BD80B5AFF3008060
:1034A00001BD80B5AFF3008001BD0648006800286B
:1034B00000D0704780B53B480068804701BD0000E0
:1034C00080E100E0841100200000002080B5AFF30F
:1034D000008001BD80B5AFF3008001BD80B5AFF3C2
:1034E000008001BD80B5AFF3008001BD80B5AFF3B2
:1034F000008001BD80B5AFF3008001BD80B5AFF3A2
:103500000080AFF3008001BD80B5AFF3008001BD46
:1035100080B5AFF3008001BD80B5AFF30080AFF39D
:10352000008001BD80B5AFF3008001BD80B5AFF371
:10353000008001BD80B5AFF30080AFF3008001BD16
:1035400080B5AFF3008001BD10B5124C01202060A2
:10355000FFF78DFEFFF707FF2068002804D10E4813
:103560000068002803D080472068002802D10D4859
:1035700000688047AFF30080AFF300800020206038
:1035800010BD00003011002008000020381100207C
:103590002C11002084110020441100200002004062
:1035A000481100205011002070B5140005000E00D5
:1035B000002234482818FFF7B1FD0020B100691837
:1035C000314A891808602278310030482818FFF7FE
:1035D000A5FD627831002E482818FFF79FFDA278DC
:1035E00031002C482818FFF799FDE27831002A486D
:1035F0002818FFF793FD2279310028482818FFF793
:103600008DFD6279310026482818FFF787FDA079E3
:1036100029490A68294B1340C00380221202104036
:1036200018430860002070BD80B5254A02E080B5CF
:10363000164B03E08018FFF77EFD02BDC018FFF7B0
:103640006DFD002002BD890040180F49401802603E
:103650000020704710B51300012202E010B51300DE
:1036600000223A4C9B00E3181818FFF757FD002082
:1036700010BD374940180068704780B50022354BAF
:10368000DCE700000C0D0240000C0240080D024077
:10369000000D02401C0D0240200D0240240D02408E
:1036A0002C0D024080B54B4BC018801080040014D4
:1036B000FFF7C9FF01BD0000080F0240FF7FFFFFB9
:1036C000040D02407CB50C001500424940188010E2
:1036D000860007216846FFF757FD01210022684652
:1036E000002D08D0012D09D0022D0BD0042D0DD0B6
:1036F000082D0FD011E04170C27005E04170C2701A
:1037000001710AE04170C170027106E042700170FF
:10371000427102E042700170417121006A4630B28C
:10372000FFF742FF73BD80B52A4BC018801080049C
:103730000014FFF77CFF01BD80B5264A8018801079
:1037400080040014FFF770FF02BD0000300D02403E
:10375000000E0240100E024058B50C001D494118E1
:1037600089108E00082A07D012D30A2A0DD005D35B
:103770000C2A0CD004D30BE0012009E0022007E062
:103780000222210030B2FFF765FF032000E0002095
:10379000C2B2210030B2FFF75DFF51BD38B50C0059
:1037A0000C494018801085000122210028B2FFF743
:1037B00055FF0222210028B2FFF750FF032221000B
:1037C00028B2FFF74BFF0022210028B2FFF746FF87
:1037D00031BD000000F4FDBF80B5FFF7BDFB3049EF
:1037E000086001BDF8B50020FFF734FC1120FFF799
:1037F00043FCFFF7B1FB2A4908602A4800680090A3
:103800002848006880214905014326480160264870
:10381000C168264A0A40C260C16C254A0A40C26497
:103820002449CA68C0231B021340CB60CA6C002322
:10383000CB64214AD468D360D36C204C1C40D46440
:1038400003680B241C430460036C1D4C1C4304647C
:103850001C4B0C681C430C601B4C0D6C25430D6409
:10386000156825431560194D166C2E431664066ABB
:103870000B2737430762066E114F37430766086A06
:1038800003430B62086E20430866106A0443146207
:10389000106E05431566009802490860F1BD0000EE
:1038A0008811002020200040000D0240F4FF00009D
:1038B000FB080000800D0240001D024003F90000DB
:1038C00004F70000FF3F0000FFFF0000FC060000BF
:1038D00080B500F047FEFFF785FF04F011FB0020E4
:1038E00002BD000080B50122001DFFF717FC00207B
:1038F00002BD80B51030FFF71EFC02BD0021416102
:103900000020704780B500221430EEE70068C0B296
:10391000704780B500221430E7E780B5E3E7000088
:10392000FEB50D00694600BF89A218CA18C101D1B1
:103930000420FEBD04000020606004202E5E688824
:10394000697801433143287808436060287840282B
:1039500001D0C0281ED1A86816F052FC0700E86804
:1039600069463212D20D921952129200895888403B
:1039700016F046FC0100380000F008FEFC21890525
:1039800016F04EFF00F080FE80B2A06104212000FE
:10399000FFF7A8FF0020FEBD70B586B0060010211D
:1039A00002A8FFF7F1FB07216846FFF7EDFB0121B5
:1039B0001C20FFF78FFB00246D46002068706A46CC
:1039C0000921FFF7F1FD012209210020FFF73BFE4D
:1039D000012068706A460A210020FFF7E5FD0122F8
:1039E0000A210020FFF72FFE01210020FFF772FBC4
:1039F00002A840210170448044700596C90081806E
:103A0000FFF718FB04908024E40502A92000FFF7CB
:103A100087FF00212000FFF77CFF01212000FFF736
:103A200078FF00212000FFF778FF01220121062006
:103A3000FFF7B4FB06B070BD7CB50600FA2080012C
:103A400000900825EC062069284028D10098411EE6
:103A50000091002823D00120FEF71CFAF3E7300084
:103A6000364D29786A781206120C1143022602227A
:103A70000A432A70120A6A702168FF2291430843A0
:103A800020602F480090206930400DD10098411EE1
:103A90000091002808D00120FEF7FCF9F3E7009818
:103AA0000028DCD5002076BD01212000FFF731FF82
:103AB000287869780906090C0843224901402970D1
:103AC000090A6970012076BD7CB5FA26B60100248A
:103AD00001906846018000E0641C684600888442CA
:103AE00010D20198005DFFF7A7FF05002000142108
:103AF00000F0B4FB002901D1FEF7ABF9002DEBD1AA
:103B0000002076BD10480068C00707D43000461E6C
:103B1000002803D00120FEF7BDF9F3E7300000D004
:103B20000120C0B276BD80B5084A1279002A01D1C1
:103B3000002002BDFFF7C8FF02BD0000C800002042
:103B400000710200FDFF000010000040F0030020A3
:103B5000040000000300000080B503E080B50022EF
:103B600001E080B50122001DFFF7D8FA002002BD58
:103B700080B51030FFF7DFFA02BD80B500221430A7
:103B8000F2E70000F8B50D0001D10420F2BD0400F9
:103B90000020606006202E5E698868780843304304
:103BA0000421695E08432978014361602878402830
:103BB00001D0C0281ED1A86816F022FB0700E868D3
:103BC0006DA13212D20D921952129200895888407A
:103BD00016F016FB0100380000F0D8FCFC21890526
:103BE00016F01EFE00F050FD80B2A06104212000FE
:103BF000FFF7B7FF0020F2BDF8B586B0070016004A
:103C000001211C20FFF766FA00246D466C706A469D
:103C100000214020FFF7C8FC032200214020FFF7CD
:103C200012FD012068706A460B214020FFF7BCFCA2
:103C300003220B214020FFF706FD01210220FFF7A0
:103C400049FA02AD6C80300001D16C7007E0022EA1
:103C500001D1042002E0032E01D108206870AC805D
:103C6000FFF7E8F904908020C000E8800597402025
:103C700028703F4C02A92000FFF784FF002120009C
:103C8000FFF77BFF01212000FFF777FF01212000D4
:103C9000FFF764FF00212000FFF75EFF01220321F0
:103CA0000820FFF77BFA07B0F0BD80B5002208219D
:103CB000FFF7A2FF01BDF8B50400FA25AD0100959C
:103CC00008272B4E306938401BD10098411E0091C7
:103CD000002816D00120FEF7DDF8F3E73068FF2159
:103CE00088430443346000950224306920400DD19C
:103CF0000098411E0091002808D00120FEF7CAF864
:103D0000F3E700980028E9D50020F2BD0120F2BDBC
:103D10007CB5FA26B601002401906846018000E0D7
:103D2000641C68460088844210D20198005DFFF749
:103D3000C2FF05002000142100F090FA002901D1F3
:103D4000FEF787F8002DEBD1002076BD094800680A
:103D5000C00707D43000461E002803D00120FEF71C
:103D600099F8F3E7300000D00120C0B276BD000022
:103D700000020040100200400400000003000000A8
:103D80000200000010B500220260012343600B789E
:103D90004C781C438B782343C978194340230B4349
:103DA00003608260002010BD012283689B081340DD
:103DB000FBD0C160816849081140FBD0C068C0B227
:103DC00070471CB5040001210620FFF783F940204D
:103DD000FFF7B8F90020694648808020487010201D
:103DE00008702000FFF7CEFF13BD80B50948FFF72C
:103DF000E8FF01BD10B50400002060602000FFF75F
:103E0000D3FF0121616010BD80B501000148FFF7BB
:103E1000F1FF02BD0008004070470000F0B589B016
:103E200006000F0000255048009001A8202116F040
:103E3000B5FF012E0BD0022E09D0042E07D0062E7E
:103E400005D0082E03D00C2E01D004202DE02048F0
:103E50000268694911407A02430D1A400A43026020
:103E600013A101AFAA008B587343BB506D1C082DE2
:103E7000F8D300213C4F00978A00604B9B1804E068
:103E8000374DC560374DC5601C6001ACA4581D6836
:103E9000A54206D0009D6E1E0096002DF0D1072091
:103EA00003E0491C0829E6D3002009B0F0BD00005A
:103EB00020000000170000001B000000504600001A
:103EC000E022020018000000F0000000E8030000FB
:103ED00020000240F3B583B0234C00940398802166
:103EE000C902884201D3042038E00094524D0126D3
:103EF00028680009304024D00098411E0091002815
:103F0000F6D109202AE0009A531E0093002AF8D027
:103F1000E860EF602A68019B134033432B602A68F6
:103F20000A40012AEFD10498039908600094286898
:103F3000000930400FD00098411E00910028F6D1B2
:103F4000DFE700F064F800940320C0430190054FC0
:103F500038480321E3E700F053F8002005B0F0BD36
:103F60005A5A0000A5A50000FFFFFF00F1B582B07E
:103F7000324C009402988021C902884201D3042067
:103F8000FEBD009401272C4D28680009384025D03B
:103F90000098411E00910028F6D10920FEBD009B2B
:103FA0005E1E0096002BF8D0E960E8602E68019B49
:103FB000334002261E432E602B681340022BEED1A5
:103FC00000200299087000942868000938400FD03A
:103FD0000098411E00910028F6D1DEE700F017F8A6
:103FE00000940320C0430190154812490322E3E7DF
:103FF00000F006F80020FEBDFFFDFFFF00000240BC
:1040000010480C4901600E4A0260002306E00D488A
:10401000084901600A4A02600023DB4343600160F3
:10402000026083600160026043610160026083613D
:10403000704700005A5A000020000240FFFFFF00B6
:10404000A5A500002C00024080B501210120FFF74A
:10405000E5FE01BD38B50400FFF788FF05008020AC
:1040600080002018FFF782FF281832BD80B5FFF7C7
:1040700031FF02BD80B50A000A2112E080B50EE0D2
:1040800080B500211030FFF756F802BD80B5002240
:104090000021143006E0006880B2704780B50A0045
:1040A00000210C30FFF73AF801BD30B5FA2292003A
:1040B0000B78C4685A4D2540DB02E024A4011C4063
:1040C0002C43C4604B78C4683025AC431B011D40B1
:1040D0002543C5608B78C468524D25405B0280241F
:1040E000A40023402B43C360CB78C4684E4D2540C9
:1040F0001B028024640023402B43C3600B79C468F7
:104100000825AC43DB002B402343C3604B79C468D4
:104110000425AC439B002B402343C3608B79C468C8
:104120000225AC435B002B402343C3603F4B14008C
:10413000E218240403D0C4682506ED0FF7D012045A
:1041400001D1092030BD09894268120C12041143C3
:104150004160002030BD3EB53548364908600A212F
:104160006846FFF711F801210920FEF7B3FF01218E
:104170002420FEF7AFFF00206C46207060800221F3
:104180006170A080A07120812B4D69462800FFF747
:104190008CFF0120A071294C69462000FFF785FFA4
:1041A0002800FFF773FF2000FFF770FF01212800B0
:1041B000FFF760FF01212000FFF75CFF01220321D0
:1041C0001120FEF7EBFF01212800FFF767FF002118
:1041D0002000FFF763FF37BD70B50400FA26B60074
:1041E000164D00212800FFF749FF01200F4932003A
:1041F0005618120403D0EA68D2090240F7D0686862
:10420000000C0004091B89B2014369602800FFF714
:104210003DFF01212800FFF731FF70BD00000000C5
:10422000FFC7FFFFFFFDFFFFFFFEFFFFFFFF0000D7
:10423000817B000050110020000F0040400F004023
:1042400090FBF1F070470000844690FBF1F001FB19
:1042500010C17047B0FBF1F0704700008446B0FB1E
:10426000F1F001FB10C1704762F30F2262F31F42AD
:10427000401810F0030308D0C91A1FD3DB0748BF4A
:1042800000F8012D28BF20F8022D130030B4144689
:104290001546103928BF20E93C00FAD8490728BF45
:1042A00020E90C0048BF40F8042D890028BF20F801
:1042B000022D48BF00F8012D30BC7047C91818BF47
:1042C00000F8012DCB0728BF00F8012D7047000032
:1042D00062B38B0708D0521E11F8013B00F8013B76
:1042E00000F024808B07F6D1830740F0208000BFC8
:1042F000103A07D330B4B1E83810103AA0E83810BB
:10430000F9D230BC530724BFB1E80810A0E8081068
:1043100044BF51F8043B40F8043BD20724BF31F8B6
:10432000022B20F8022B44BF0B7803707047121F3A
:1043300017D35B0009D151F8043B20F8023B1B0C5A
:10434000121F20F8023BF6D20BE051F8043B00F8B4
:10435000013B1B0A20F8023B1B0C121F00F8013B1B
:10436000F3D238BF121D521E24BF11F8013B00F8D2
:10437000013BF8D87047000010B504007049087878
:104380004A781206120C1043000AC00708D5042C04
:1043900002D10BF00BFF03E0032C01D10BF007FF60
:1043A00068480168002901D020008847022002F0F7
:1043B0004FFB10BD704764488078002800D17047DB
:1043C00010B5624C0A212000FFF7E8F901220A210A
:1043D0002000FFF767F95E48017902220A43027163
:1043E000017842781206120C114301220A4302702E
:1043F000120A4270574CFF202074211D0120FDF746
:10440000C3FF21000520FDF7BFFF10BDF8B54E4EDC
:10441000B078002800D192E08025ED050021280029
:10442000FFF767FA002800D17FE002212800FFF79C
:1044300060FA002879D100212800FFF763FA40498B
:1044400008784A781206120C10430127414C000AE2
:1044500038420FD04048FDF78BFF8003800F0228C1
:1044600008D0201DFDF784FF002803D1211D042062
:10447000FDF78AFF201DFDF77BFFFF2124318842D5
:1044800004D33648FFF742FA00903FE02800FFF7D8
:104490003DFA694608703079002828D0201DFDF7C4
:1044A00067FF002811D168460078FF280DD0201D35
:1044B000FDF75EFFFF21220010321154201DFDF791
:1044C00057FF211D401CFDF75FFF201DFDF750FF2A
:1044D00001280CD168460078FF2804D1211D002056
:1044E000FDF752FF03E068460078AA280ED168461F
:1044F0000578201DFDF73CFF210010310D54201DD3
:10450000FDF736FF211D401CFDF73EFF2100042072
:10451000FDF73AFF0E48017842781206120C11435B
:104520000F4307703F0A477006E02800FFF7EEF9D7
:1045300000902800FFF7E2F9042002F089FAF1BDAB
:10454000700200203C110020F0030020000C02400B
:10455000C8000020200400200000002000010040CE
:104560007047000010B5074979441831064C7C4467
:10457000163404E00A68081D114488470146A14228
:10458000F8D110BDF4650100E467010010B5FF2308
:1045900013EAD0541DBF13EAD1529C429A4239E02B
:1045A000A41ADA0780EA0103134042EA012142EA31
:1045B0000020421A3CBF641E01EB4202090AB2FB12
:1045C000F1FE01FB1E221202B2FBF1F001FB1022F0
:1045D0006EF30F201202B2FBF1FE4EEA00207F3490
:1045E00006DDFE2C24DA53EA500050EBC45010BD17
:1045F000D4F1020401FB1E2240F08071192C1DDC55
:1046000021FA04F0C4F12004A140114371F10042E9
:10461000584110BD9C421ABF03EAD1529A420FE0A2
:1046200080EA010E0EF00043400004D0490016D18C
:1046300043F0FF4010BD490008BFD343180010BD30
:104640009C4205D1D21AF7D001F00041484010BD7C
:104650004A0212BF0846484000F0004010BD4AB967
:104660000902B1FA81F2914044B1A418C00140F0AE
:1046700000409EE7C90141F0004152420002B0FAF9
:1046800080F4A040141B94E7C0F3C7517E390EDDBF
:10469000C217D1F1200106DD000240F00040C84001
:1046A000104450407047D04380F0004070470020D5
:1046B0007047000013F0004C03D55B42524263F197
:1046C00000039CEA210C00F0178010B5644603D368
:1046D0004942404261F1000100F00EF8640004D349
:1046E0004942404261F10001244203D55B425242FB
:1046F00063F1000310BD0000B3BBD9B1B2F5803F38
:104700007DD2022A1ED98C46B1FBF2F102FB11C305
:104710001B0443EA1043B3FBF2FC02FB1C3380B2E0
:1047200040EA0343B3FBF2F002FB103240EA0C40D4
:1047300000237047022A05D98446B0FBF2F002FB41
:1047400010C270474AB105D100F0010249085FEA82
:104750003000704700220023704700F0E5B80B00DE
:104760000200002100207047904271EB030CF6D349
:10477000B3F5803F2FD2F0B5B3FA83F7B1FA81F4E5
:10478000A7F10F0E3D1B5340CEF1200602FA0EF2A8
:10479000F3415340B5F10F0746D80F3C2C4441403C
:1047A000C4F12006A040F1414140B1FBF3F603FB08
:1047B0001611A2FB0645001BA94102D2761E8018E5
:1047C000594180EA010221FA0EF362FA0EF2002149
:1047D0005A403046F0BD30B4B1FBF3FC03FB1C1172
:1047E000A2FB0C45001BA94103D2ACF1010C8018BF
:1047F000594130BC02460B46604600217047B2F179
:10480000807F65D3F0B5B2FA82F7B1FA81F4C7F1CF
:104810000F063D1B22FA06F307F1110EF241203577
:104820005A40B5F10F07B8D94140C4F12006A04065
:10483000F1414140B1FBF3FC03FB1C11A2FB0C4511
:10484000001BA94103D2BCF1010C801859410F2F64
:1048500012D30F3FC90341EA5041B1FBF3F603FB0A
:104860001611A2FB0645D4EBC030A94102D2761E38
:104870008018594146EACC3C07B34140C7F12006B5
:10488000B840F1414140B1FBF3F603FB1611A2FB26
:104890000645001BA94102D2761E8018594180EAC4
:1048A000010221FA0EF3C7F1200462FA0EF20CFAAB
:1048B00007F05A402CFA04F13043F0BD80EA0102BF
:1048C00021FA0EF3002162FA0EF260465A40F0BD62
:1048D0008C46B1FBF2F102FB11C31B0243EA1063E9
:1048E000B3FBF2FC02FB1C331B024CEA002043EA40
:1048F0001063B3FBF2FC02FB1C331B024CEA0020EA
:1049000043EA1063B3FBF2FC02FB1C331B024CEACC
:10491000002043EA1063B3FBF2FC02FB1C324CEABA
:1049200000200023704700007047000010B50028E9
:1049300001D1042010BD194901220A600A68437898
:104940000424045F23430624045F23430224045FFA
:1049500023430824045F234313430B6002784B680E
:104960000F4C1C4092020B0D1A4022434A60807A81
:104970004A6804239A43800018401043486000208E
:1049800010BD06490A681D4B13400001F822520071
:1049900002401A430A6000207047000004240040CF
:1049A000FFFBFFFF3EB5040001211020FEF792FB44
:1049B000002168460170418080221201C28081720C
:1049C0000125604A0223002C146809D02543156094
:1049D000146823431360120C02810C22427008E019
:1049E0002340136013681D40156041700181C02190
:1049F000C9008180FFF79AFF37BD00000FFEFFFF5F
:104A0000F8B58AB00400642069464880474F68467C
:104A100007800025142601A84EA12422FFF768FC78
:104A200020000AD00A2C08DA01A8A1004018001FB3
:104A300004680020C043844201D1380038E0E0B26D
:104A400001271B2801D1012503E01C2801D10125E4
:104A500028262800FFF7A6FFE0B2FFF792FF344CAC
:104A6000344D6069284060613000FDF713FA276219
:104A7000009E36142069384007D13000461E0004DD
:104A800003D00120FDF706FAF4E736B2012E02DB6F
:104A900020686946088060690540656100202062E1
:104AA000FFF780FF28480168B94301606846008825
:104AB0000BB0F0BD80B51B20FFF7A2FF2349414397
:104AC000C812000D40180001000C02BD80B51C206A
:104AD000FFF796FF18490988401A16F03BF817A20D
:104AE0000CCA00F049F80022194B15F097FB00F0B2
:104AF00015F9FFF7C9FD00B202BD000038B5050089
:104B00001B20FFF77DFF0400E8B2FFF779FF0F4994
:104B10006143CA12120D511809134143080B15F0D5
:104B20006FFBFFF7B1FD80B232BD0000FFFF000058
:104B3000A0240040FEFF0000340C100015AE47E139
:104B40007A14F33F00240040042400409411000034
:104B500000406F400400000002000000120000004E
:104B6000050000000800000006000000FFFFFFFF36
:104B7000FFFFFFFF07000000B0B581EA030C0CF057
:104B8000004C40F2FF7515EA11541DBF15EA13578A
:104B9000AC42AF4239E0E41923EA455343F48013B1
:104BA000C90241F0004141EA505EC7021100A7FB73
:104BB000020200284FF00000EEFB01204FF0000140
:104BC000E3FB072118BF42F00102401800214941D0
:104BD000E3FB0E01A4F580640F0302D252004041B2
:104BE000494154F101046CDD470872F1004250F173
:104BF000000051EB0451A1F580115CBF41EA0C01AA
:104C0000B0BD4CEA05510020B0BD05EA1357AC42D7
:104C100014BFAF4241E050EA410E1CBF52EA430EBE
:104C200002E061460020B0BD24423C441BD15FEA53
:104C3000070EF6D0090302BF01460020AEF1140EA4
:104C4000B1FA81F7AEEB070401FA07FE0C37C7F1A2
:104C5000200100FA07F7C8404EEA000E23EA455348
:104C600043F48013A2E733F00043B3FA83F704BFA1
:104C7000B2FA82FE77440B3FE41BB7F1200E2FBF40
:104C800002FA0EF3BB40C7F1200E22FA0EFE38BF27
:104C900043EA0E03BA40641C82E750EA410E14BF97
:104CA00052EA430E6FF000014FF4001717EB430F69
:104CB0008ABF194617EB410FB5E74CEA05510020B2
:104CC000B0BDD4F10104B4F120070FDAC4F120071C
:104CD000520828BF42F0010210FA07F501FA07F75F
:104CE000E1BF2A43E0403843E1400FE0352C98DC37
:104CF000C7F1200452EA400220FA07F218BF42F03E
:104D0000010231FA07F0A1400A43002172F100428A
:104D100050F1000051EB0C01B0BD000001F0004269
:104D20008B1AA3F16051B1F5801F0ADBB1F17F6FDF
:104D30001FD242EAC102C10071F1004142EB507042
:104D400070470B15C3F10903212B10D2890241EAE8
:104D5000905180020128494141F0004121FA03F0BD
:104D6000C3F12003994071F1004150417047100098
:104D700070476FF0000013EB103F5CBF000E42EA7B
:104D8000C0507047F0B540F2FF7581EA030C0CF09B
:104D9000004C15EA11541DBF15EA1357AC42AF423F
:104DA000E5E0BC41C1F31301C3F31303801A994139
:104DB00043F4801304D2641E4000494180185941D5
:104DC000C90241EA5051B1FBF3F603FB1611A2FBF5
:104DD0000675D7EBC020A94102D2761E8018594132
:104DE000C90241EA5051B1FBF3FE03FB1E11A2FBC5
:104DF0000E75D7EBC020A94103D2AEF1010E801889
:104E00005941890241EA9051760546EA8E2EB1FB5E
:104E1000F3F603FB1611A2FB0675D7EB8020A94120
:104E200002D2761E80185941C90241EA50514EEA19
:104E3000060EB1FBF3F603FB1611A2FB0675D7EBCA
:104E4000C020A94102D2761E80185941C90241EA08
:104E50005051B1FBF3F703FB1711A2FB0735D3EB5E
:104E6000C020A94167F100070CBF004247F00107CD
:104E700066F3D5274FEA1E31B80814F5806412DDB9
:104E8000BD0775F1004250EB0E5051EB045111F586
:104E9000801F5CBF41EA0C01F0BD4CF07F6141F026
:104EA000E0410020F0BDBD076D0840EA0E5041F41E
:104EB0008011D4F10104B4F120060ADAC4F120060D
:104EC0000200E04001FA06F3E1401843B240154306
:104ED0000EE0342C13DCC6F1200445EA40056D08D1
:104EE00020FA06F2154321FA06F0A1400D430021F5
:104EF00075F1004250F1000051EB0C01F0BD0020B3
:104F00005FEA0C01F0BDCFB992185B41B3FA83F7A9
:104F100004BFB2FA82F6BF190B3FB7F120062FBFCC
:104F200002FA06F3BB40C7F1200622FA06F638BFA4
:104F30003343BA401CB1E419641E33E77F4231F0B9
:104F40000041B1FA81F404BFB0FA80F6A4190B3C19
:104F5000B4F120062FBF00FA06F1A140C4F12006EB
:104F600020FA06F638BF3143A0403C1B1AE7AC429A
:104F70001ABF05EA1357AF4212E050EA41061CBFC0
:104F800052EA4306BFE750EA4107304661461CBF7C
:104F900041EA0551F0BD52EA430C08BFC143F0BDE0
:104FA00000204FF4001616EB410F98BF16EB430F8D
:104FB00008BF16EB410F24BFC14305E016EB430FBA
:104FC0000CBF61464CEA0551F0BD00003A490A6841
:104FD000042313430B6004E037490A6804239A430F
:104FE0000A600A68022318401043086030BF704707
:104FF000F8B501270724314D314E02E02420FCF79B
:1050000049FFB079F1790906090C08434119B171DA
:10501000090AF17100280DD0307920420AD1307888
:1050200071780906090C08433842E7D0307902212B
:1050300001433171F1BD38B5214CA078E178090602
:10504000090C084315D11F488178002911D0007937
:1050500000280ED000210020FEF73CF81A4D022255
:105060000A212800FEF72EFB0A220A212800FEF75B
:1050700073FBA078E1780906090C084303D00020EF
:10508000FFF7AAFF31BDFFF7A1FF31BD0D488078C2
:10509000002800D1704710B501210020FEF71AF852
:1050A000094C0A212000FEF779FB01220A21200089
:1050B000FEF7F8FA10BD000010ED00E0FFFF000061
:1050C000C8000020F0030020000C024040F2FF7CEA
:1050D0001CEA115240F2FE33D21A18DD352A20DACA
:1050E000B2F1150309DA6FEA4C53D340094201D5F6
:1050F000401E59410020994370476FF00002DA408A
:10510000094202D5801851F100019043704750EADE
:1051100041031CBF4FEA0C5101F1804138BF00210F
:105120000020704740F2FF7C1CEA115240F2FE332F
:10513000D21A18DD352A1FDAB2F1150309DA6FEA3F
:105140004C53D340094201D4401E59410020994399
:1051500070476FF00002DA40094202D4801851F122
:1051600000019043704750EA41021CBF591C0905D9
:1051700028BF4FF00041002070470000C0F3C75126
:1051800081B1FF2906D0C110400721F0E04101F1B3
:105190006051704741020CBF40F4E0016FF00041E4
:1051A0000020704700F0004100020AD0B0FA80FCF5
:1051B00000FA0CF001F16051A1EB0C5101EBD02190
:1051C0004005704719E050F8042BD30744BFA9F1FC
:1051D00001039A18091F0023042942F8043BF9D25D
:1051E0005FEA817C134604D54FF0000CA2F800C0A2
:1051F0009B1CC90744BF0021197050F8041B0029EB
:10520000E1D170474FF4001C1CEB410F94BF1CEB25
:10521000430F09E041EA030C50EA4C0C52EA0C0C33
:1052200003D2994208BF9042704714BF8B4282421A
:10523000704700004FF4001C1CEB410F94BF1CEBA7
:10524000430F09E041EA030C50EA4C0C52EA0C0C03
:1052500003D28B4208BF8242704714BF99429042EA
:10526000704710B450F8041B79B1026843680244D7
:105270000830DC0744BFA9F10104E31852F8044BDD
:1052800043F8044B091FF9D1ECE710BC704700004C
:10529000D2B2203A22BF41FA02F0C9177047203239
:1052A000D141D04048409140D140484091401141C7
:1052B00070470000D2B2203A22BF00FA02F100206B
:1052C00070475242D041D2F1200291404140D0403B
:1052D000904041407047000090420CD141EA030CDD
:1052E00050EA4C0C07D0994205D14FF4001C1CEB3E
:1052F000410F38BF89427047030A107053701B0A70
:1053000093701B0AD3700B0A117153711B0A9371AE
:105310001B0AD37170470000D2B2203A22BF21FA93
:1053200002F0002170472032D141D04048409140E6
:10533000D140484070470000FEF7CAFA002801D06B
:10534000FFF710F9AFF300800020AFF3008002F008
:10535000D7FD00F000F800F001B80000074638461D
:1053600000F002F8FBE7000080B5AFF30080024ACE
:1053700011001820ABBEFBE72600020000FB03FC77
:1053800001FB02CCA2FB000161447047AFF3008037
:08539000AFF30080FFF7D0FF2E
:105C000070B50500002459498C70594E0CCE083EE1
:105C100058480021C9431040194003C6564818216E
:105C20004D434519280015F0B5F828001030FDF750
:105C3000E9F82A001032150002000B000020C043D2
:105C40004E49104019402A00FFF756FB534A0020E6
:105C50000021E300D31803C3641C202CF9DB70BDC2
:105C60007CB5474D6B70212836D0222834D01428BB
:105C700001D0232801D1052400E00324069B2C72C7
:105C80006A6029703F4C012121613F4A22606563AF
:105C9000F02B05D0142803D0232804D0202802D0CC
:105CA0000522002312E03E48058828001B1D99406C
:105CB000FEF7CAFA0E00FA208000464328000721AA
:105CC000FEF7C2FA892041437218D317200000F072
:105CD00089FF200000F0E7FF73BD7CB52B4E8120CB
:105CE0003070304D0822290030000830FCF76BFA84
:105CF0002800FDF787F80003000F84002000103013
:105D0000212800DB1024220029000C313000103043
:105D1000FCF759FA0520009023001033DBB2320063
:105D2000D5211720FFF79CFF73BD38B50C00104D2F
:105D30000CCD083D16A003C81040194003C51648F5
:105D4000FCF716FB8107C90F08D017480168002926
:105D500001D001208847FCF737F831BDF02301223C
:105D60002178607800F07CFA31BD0000181D002019
:105D7000F0110020FFFDFFFF301F0020FFFEFFFF9E
:105D8000281D0020581D00208D610000381D0020B6
:105D9000FFFDFFFFFFFFFFFF00000020301E00207F
:105DA00080110020F0020020001D0020F2B58AB012
:105DB000002004900390CF480A9909781822514393
:105DC00040180290CC4C0120A0700A98007800F096
:105DD0006BFA06906078142801D0232806D1082297
:105DE000C649C748FCF7EFF9082004900698C54952
:105DF000884200D01CE10298FDF704F804000D0071
:105E00000298FCF7FFFF240E2A0214430804000E38
:105E100044430298FCF7F6FF080E201A801E80B259
:105E20000090D849884200DB02E1D74C00220146AD
:105E30002000FCF7A3F9050000982018FCF7D8F91A
:105E4000854201D101200390FBF774FD03980028DF
:105E500000D1EBE0201D07902000FCF7CEF9059063
:105E6000201DFCF7CFFF000C80003C2101400C31CD
:105E700089B201910098884200DAD9E0201DFCF730
:105E8000C1FFBF4D80235B050B4014D008AE201D21
:105E9000FCF7B8FF03C62800FCF7B4FFB4A20CCA95
:105EA00002400B4008A803C8000E0006104319006A
:105EB0002A00FFF721FA201DFCF7A4FF080F800736
:105EC00014D508AE201DFCF79DFF03C62800FCF783
:105ED00099FFA9A6C0CE06400F4008A80CC8894962
:105EE0001940300039432A00FFF706FA201DFCF75D
:105EF00089FF080F400715D508AE201DFCF782FF6B
:105F000003C62800FCF77EFFB2A6C0CE06400F40B5
:105F100008A80CC8FF2109041940300039432A00A1
:105F2000FFF7EAF90822002128000AF069FA201D8B
:105F3000FCF768FF3C26000C8200324021000C3147
:105F400028000C30FCF73FF9201DFCF75BFF000C2C
:105F50008000064032000C2128000C300AF050FA74
:105F6000A14D03CD083D0F22D243024005999BA6C7
:105F7000C0CE16400F4000980199421A1204994869
:105F800010403043012202433B000CC5083D0298FB
:105F90000830FCF737FF019AA718009A019BD61A20
:105FA000E624A400C0B2032804D004280DD0202881
:105FB00015D023E0082229002000FCF77FFEB2B2B2
:105FC00039000598FCF77AFE13E00822290020002A
:105FD000FCF774FEB1B23800FCF7BCFE09E0082201
:105FE00029002000FCF76AFEB2B239000598FCF7E0
:105FF000CFFD082229002000FCF760FE03CD083DFC
:10600000A4A20CCA02400420104303C5083D082284
:1060100029002000FCF752FEA04C2000FCF7A8F954
:106020002100022202431000FCF7AEF9FBF788FCC6
:106030000298FCF7E7FE6A464803400F1071304DA6
:10604000812004996854042202990831681C049B39
:10605000C018FCF7B8F8069881000A980078014348
:1060600089B204982818401DFCF7F6F8039801211E
:10607000414004982818C171049C0834404E0822FD
:1060800031002819FCF79FF808340398002813D032
:106090000798FCF7B7FE000C80003C270740E0198A
:1060A000202801DD2020071BBAB231000C3128194D
:1060B000FCF789F8BFB2E4194B4E0CCE083E78A02D
:1060C00003C81040194003C60A980078FFF798FDEE
:1060D00009484078212817D1A5490E68002E21D003
:1060E000694609790091E3B22A000A99C978B04754
:1060F00018E000BF301F0020181D002043010020C1
:10610000381D0020FFFF000022280BD199490E689E
:10611000002E07D0694609790091E3B22A000A9956
:10612000C978B04794480168002906D00398002830
:1061300001D0012000E0022088470398002814D0F5
:106140000A984078202801D0232802D1FBF73CFE92
:106150000BE00A99C978D52900D0C9216A4612797D
:106160000092E3B22A00FFF77BFD0BB0F0BD000008
:10617000FFFFFF00FFFFFFFFFFFFFFFF0000FFFF2C
:10618000F002002001080000901F002010B50C0054
:10619000207A052806D1DB20207008227749606824
:1061A000FCF711F8237A2278617860680AF0F4FA33
:1061B0003A48FCF7DDF801214008084009D0704C4E
:1061C0002161704A0023200000F00CFD200000F047
:1061D0006AFD10BDFFFFFFFFFFFF00FFFFFF000094
:1061E000FFFFFFFF0000FFFFF0110020F8B50027C0
:1061F000654C276165482060624A0023200000F05A
:10620000F1FC200000F06BFD5D4C2761604E2660C4
:10621000604D65635B4A0023200000F0E3FC200032
:1062200000F05DFD5C4C276126606563554A0023E4
:10623000200000F0D7FC200000F051FD0025574F52
:10624000574810301821694344182000FCF7DAFD44
:1062500022003940FFF750F86D1C042DF0DBF1BD32
:1062600038B54C4D29706870AA704B4C01222261E0
:10627000C848206065639A40FA2080004243D317E3
:10628000200000F0AFFC200000F00DFD200000F029
:1062900089FD31BDF0FFFFFFFFFFFFFF0000002081
:1062A000FFFDFFFFFFFFFFFFFEB50600B74C3C48B8
:1062B000310018225143451828001030FCF7A2FD88
:1062C0002A001032150002000B00ADA003C81040D8
:1062D00019402A00FFF710F80025012001906846B8
:1062E000067033E06811800E40198011A649C20083
:1062F00089180CC9019980012F1A0800B840C117EC
:106300001040194021D100281FD130001030FCF777
:1063100079FD000EFF2813DA30001030FCF772FD13
:1063200032001032944696A6C0CE0640020E521C91
:106330001206FF200006104030436246FEF7DCFFE5
:10634000A0B29249884200D12C006D1C14486946C5
:1063500009781822514346183000FCF753FD000E0F
:106360000A02104380B28542BCDBA0B2FEBD000031
:10637000081D0020101D0020001D002043010020EA
:10638000A01D002088130000581D00208D61000012
:106390002B5D0000181D0020E81D0020FFFEFFFF00
:1063A000301F0020F1B582B00025002900D0E4E0C4
:1063B0001400201DFCF726FD0F263040012859D17E
:1063C000201DFCF71FFD0004000D10D06F46201D9E
:1063D000FCF718FD03C76E48FCF714FD0200684681
:1063E00003C80004000D1104090D884242D1201D8C
:1063F000FCF708FD000D304010D06F46201DFCF763
:1064000001FD03C76248FCF7FDFC0200684603C8B3
:10641000000D3040110D0E40B0422BD1201DFCF775
:10642000F1FC80235B040B400FD0201DFCF7EAFC3D
:10643000000E0AD0201DFCF7E5FC06005448FCF7CE
:10644000E1FC320E000E824214D1201DFCF7DAFC72
:10645000080E80070FD5201DFCF7D4FC09040AD0D4
:10646000201DFCF7CFFC0F004948FCF7CBFCBAB26B
:1064700088B2824273D1201DFCF7C4FC080E40078D
:1064800012D5201DFCF7BEFC0802000E0CD0201D0A
:10649000FCF7B8FC0F003E48FCF7B4FC3E02320E9D
:1064A0000802000E82425AD1201DFCF7ABFC80236B
:1064B0005B050B4010D0201DFCF7A4FC000E4ED055
:1064C000201DFCF79FFC06003148FCF79BFC320EB8
:1064D000000E824249D10125201DFCF793FC080FD4
:1064E000800712D5201DFCF78DFC090437D0201D34
:1064F000FCF788FC0F002648FCF784FCBAB288B28F
:10650000824232D1280002250543201DFCF77AFC87
:10651000080F400715D5201DFCF774FC0802000E7B
:106520001DD0201DFCF76EFC0F001948FCF76AFC1B
:106530003E02320E0802000E824216D128000425C7
:106540000543201DFCF75EFC0726080F30420CD0E7
:10655000201DFCF757FC080F0640AE4205D16846E7
:10656000007AFFF74DFB0020FEBD0B4C0CCC083C25
:10657000802080001043190003C40120FEBD0000EC
:10658000FFFFFF00FFFFFFFF301E0020FFFF0000A6
:10659000F0020020AD5D0000F0110020F2B58EB0D9
:1065A000002100270491F0260EA90978C92900D0FE
:1065B000CCE11C00150069460871182105A814F0EB
:1065C000EDFB684600790290142801D0232805D1FC
:1065D0000822D349D348FBF7F6FD08270B956846F8
:1065E00044800770049D1BE0321D90404843CE4913
:1065F0004218D317200000F0F5FA200000F053FBFA
:10660000012020610B35EDB2C84C0CCC083CC848C9
:106610000021C9431040194003C400206946087096
:1066200068464488A54200DB92E10B98401903902C
:10663000D24F0078022803D0082800D191E179E1F7
:1066400028000B30844200DA80E105AC0A2203986E
:10665000411CA01CFBF7B7FD05A8FCF7D3FB0326E4
:10666000000D3040182148433818049005A8FCF765
:10667000C9FB000E0A0210430C9005A8FCF7C2FBF0
:106680000804070E05A8FCF7BDFB000D06400AD064
